{
  "_format": "hh-sol-artifact-1",
  "contractName": "CertificateNFT",
  "sourceName": "contracts/CertificateNFT.sol",
  "abi": [
    {
      "inputs": [
        {
          "internalType": "string",
          "name": "name_",
          "type": "string"
        },
        {
          "internalType": "string",
          "name": "symbol_",
          "type": "string"
        }
      ],
      "stateMutability": "nonpayable",
      "type": "constructor"
    },
    {
      "inputs": [
        {
          "internalType": "address",
          "name": "sender",
          "type": "address"
        },
        {
          "internalType": "uint256",
          "name": "tokenId",
          "type": "uint256"
        },
        {
          "internalType": "address",
          "name": "owner",
          "type": "address"
        }
      ],
      "name": "ERC721IncorrectOwner",
      "type": "error"
    },
    {
      "inputs": [
        {
          "internalType": "address",
          "name": "operator",
          "type": "address"
        },
        {
          "internalType": "uint256",
          "name": "tokenId",
          "type": "uint256"
        }
      ],
      "name": "ERC721InsufficientApproval",
      "type": "error"
    },
    {
      "inputs": [
        {
          "internalType": "address",
          "name": "approver",
          "type": "address"
        }
      ],
      "name": "ERC721InvalidApprover",
      "type": "error"
    },
    {
      "inputs": [
        {
          "internalType": "address",
          "name": "operator",
          "type": "address"
        }
      ],
      "name": "ERC721InvalidOperator",
      "type": "error"
    },
    {
      "inputs": [
        {
          "internalType": "address",
          "name": "owner",
          "type": "address"
        }
      ],
      "name": "ERC721InvalidOwner",
      "type": "error"
    },
    {
      "inputs": [
        {
          "internalType": "address",
          "name": "receiver",
          "type": "address"
        }
      ],
      "name": "ERC721InvalidReceiver",
      "type": "error"
    },
    {
      "inputs": [
        {
          "internalType": "address",
          "name": "sender",
          "type": "address"
        }
      ],
      "name": "ERC721InvalidSender",
      "type": "error"
    },
    {
      "inputs": [
        {
          "internalType": "uint256",
          "name": "tokenId",
          "type": "uint256"
        }
      ],
      "name": "ERC721NonexistentToken",
      "type": "error"
    },
    {
      "inputs": [
        {
          "internalType": "address",
          "name": "owner",
          "type": "address"
        }
      ],
      "name": "OwnableInvalidOwner",
      "type": "error"
    },
    {
      "inputs": [
        {
          "internalType": "address",
          "name": "account",
          "type": "address"
        }
      ],
      "name": "OwnableUnauthorizedAccount",
      "type": "error"
    },
    {
      "anonymous": false,
      "inputs": [
        {
          "indexed": true,
          "internalType": "address",
          "name": "owner",
          "type": "address"
        },
        {
          "indexed": true,
          "internalType": "address",
          "name": "approved",
          "type": "address"
        },
        {
          "indexed": true,
          "internalType": "uint256",
          "name": "tokenId",
          "type": "uint256"
        }
      ],
      "name": "Approval",
      "type": "event"
    },
    {
      "anonymous": false,
      "inputs": [
        {
          "indexed": true,
          "internalType": "address",
          "name": "owner",
          "type": "address"
        },
        {
          "indexed": true,
          "internalType": "address",
          "name": "operator",
          "type": "address"
        },
        {
          "indexed": false,
          "internalType": "bool",
          "name": "approved",
          "type": "bool"
        }
      ],
      "name": "ApprovalForAll",
      "type": "event"
    },
    {
      "anonymous": false,
      "inputs": [
        {
          "indexed": false,
          "internalType": "uint256",
          "name": "_fromTokenId",
          "type": "uint256"
        },
        {
          "indexed": false,
          "internalType": "uint256",
          "name": "_toTokenId",
          "type": "uint256"
        }
      ],
      "name": "BatchMetadataUpdate",
      "type": "event"
    },
    {
      "anonymous": false,
      "inputs": [
        {
          "indexed": true,
          "internalType": "address",
          "name": "to",
          "type": "address"
        },
        {
          "indexed": true,
          "internalType": "uint256",
          "name": "tokenId",
          "type": "uint256"
        },
        {
          "indexed": true,
          "internalType": "uint256",
          "name": "courseId",
          "type": "uint256"
        },
        {
          "indexed": false,
          "internalType": "string",
          "name": "uri",
          "type": "string"
        }
      ],
      "name": "CertificateMinted",
      "type": "event"
    },
    {
      "anonymous": false,
      "inputs": [
        {
          "indexed": true,
          "internalType": "address",
          "name": "issuer",
          "type": "address"
        },
        {
          "indexed": false,
          "internalType": "bool",
          "name": "allowed",
          "type": "bool"
        }
      ],
      "name": "IssuerSet",
      "type": "event"
    },
    {
      "anonymous": false,
      "inputs": [
        {
          "indexed": false,
          "internalType": "uint256",
          "name": "_tokenId",
          "type": "uint256"
        }
      ],
      "name": "MetadataUpdate",
      "type": "event"
    },
    {
      "anonymous": false,
      "inputs": [
        {
          "indexed": true,
          "internalType": "address",
          "name": "previousOwner",
          "type": "address"
        },
        {
          "indexed": true,
          "internalType": "address",
          "name": "newOwner",
          "type": "address"
        }
      ],
      "name": "OwnershipTransferred",
      "type": "event"
    },
    {
      "anonymous": false,
      "inputs": [
        {
          "indexed": true,
          "internalType": "address",
          "name": "from",
          "type": "address"
        },
        {
          "indexed": true,
          "internalType": "address",
          "name": "to",
          "type": "address"
        },
        {
          "indexed": true,
          "internalType": "uint256",
          "name": "tokenId",
          "type": "uint256"
        }
      ],
      "name": "Transfer",
      "type": "event"
    },
    {
      "inputs": [
        {
          "internalType": "address",
          "name": "to",
          "type": "address"
        },
        {
          "internalType": "uint256",
          "name": "tokenId",
          "type": "uint256"
        }
      ],
      "name": "approve",
      "outputs": [],
      "stateMutability": "nonpayable",
      "type": "function"
    },
    {
      "inputs": [
        {
          "internalType": "address",
          "name": "owner",
          "type": "address"
        }
      ],
      "name": "balanceOf",
      "outputs": [
        {
          "internalType": "uint256",
          "name": "",
          "type": "uint256"
        }
      ],
      "stateMutability": "view",
      "type": "function"
    },
    {
      "inputs": [
        {
          "internalType": "uint256",
          "name": "tokenId",
          "type": "uint256"
        }
      ],
      "name": "burn",
      "outputs": [],
      "stateMutability": "nonpayable",
      "type": "function"
    },
    {
      "inputs": [
        {
          "internalType": "uint256",
          "name": "tokenId",
          "type": "uint256"
        }
      ],
      "name": "getApproved",
      "outputs": [
        {
          "internalType": "address",
          "name": "",
          "type": "address"
        }
      ],
      "stateMutability": "view",
      "type": "function"
    },
    {
      "inputs": [
        {
          "internalType": "address",
          "name": "owner",
          "type": "address"
        },
        {
          "internalType": "address",
          "name": "operator",
          "type": "address"
        }
      ],
      "name": "isApprovedForAll",
      "outputs": [
        {
          "internalType": "bool",
          "name": "",
          "type": "bool"
        }
      ],
      "stateMutability": "view",
      "type": "function"
    },
    {
      "inputs": [
        {
          "internalType": "address",
          "name": "",
          "type": "address"
        }
      ],
      "name": "issuers",
      "outputs": [
        {
          "internalType": "bool",
          "name": "",
          "type": "bool"
        }
      ],
      "stateMutability": "view",
      "type": "function"
    },
    {
      "inputs": [
        {
          "internalType": "address",
          "name": "to",
          "type": "address"
        },
        {
          "internalType": "string",
          "name": "tokenURI",
          "type": "string"
        },
        {
          "internalType": "uint256",
          "name": "courseId",
          "type": "uint256"
        }
      ],
      "name": "mintCertificate",
      "outputs": [
        {
          "internalType": "uint256",
          "name": "",
          "type": "uint256"
        }
      ],
      "stateMutability": "nonpayable",
      "type": "function"
    },
    {
      "inputs": [],
      "name": "name",
      "outputs": [
        {
          "internalType": "string",
          "name": "",
          "type": "string"
        }
      ],
      "stateMutability": "view",
      "type": "function"
    },
    {
      "inputs": [],
      "name": "owner",
      "outputs": [
        {
          "internalType": "address",
          "name": "",
          "type": "address"
        }
      ],
      "stateMutability": "view",
      "type": "function"
    },
    {
      "inputs": [
        {
          "internalType": "uint256",
          "name": "tokenId",
          "type": "uint256"
        }
      ],
      "name": "ownerOf",
      "outputs": [
        {
          "internalType": "address",
          "name": "",
          "type": "address"
        }
      ],
      "stateMutability": "view",
      "type": "function"
    },
    {
      "inputs": [],
      "name": "renounceOwnership",
      "outputs": [],
      "stateMutability": "nonpayable",
      "type": "function"
    },
    {
      "inputs": [
        {
          "internalType": "address",
          "name": "from",
          "type": "address"
        },
        {
          "internalType": "address",
          "name": "to",
          "type": "address"
        },
        {
          "internalType": "uint256",
          "name": "tokenId",
          "type": "uint256"
        }
      ],
      "name": "safeTransferFrom",
      "outputs": [],
      "stateMutability": "nonpayable",
      "type": "function"
    },
    {
      "inputs": [
        {
          "internalType": "address",
          "name": "from",
          "type": "address"
        },
        {
          "internalType": "address",
          "name": "to",
          "type": "address"
        },
        {
          "internalType": "uint256",
          "name": "tokenId",
          "type": "uint256"
        },
        {
          "internalType": "bytes",
          "name": "data",
          "type": "bytes"
        }
      ],
      "name": "safeTransferFrom",
      "outputs": [],
      "stateMutability": "nonpayable",
      "type": "function"
    },
    {
      "inputs": [
        {
          "internalType": "address",
          "name": "operator",
          "type": "address"
        },
        {
          "internalType": "bool",
          "name": "approved",
          "type": "bool"
        }
      ],
      "name": "setApprovalForAll",
      "outputs": [],
      "stateMutability": "nonpayable",
      "type": "function"
    },
    {
      "inputs": [
        {
          "internalType": "address",
          "name": "issuer",
          "type": "address"
        },
        {
          "internalType": "bool",
          "name": "allowed",
          "type": "bool"
        }
      ],
      "name": "setIssuer",
      "outputs": [],
      "stateMutability": "nonpayable",
      "type": "function"
    },
    {
      "inputs": [
        {
          "internalType": "bytes4",
          "name": "interfaceId",
          "type": "bytes4"
        }
      ],
      "name": "supportsInterface",
      "outputs": [
        {
          "internalType": "bool",
          "name": "",
          "type": "bool"
        }
      ],
      "stateMutability": "view",
      "type": "function"
    },
    {
      "inputs": [],
      "name": "symbol",
      "outputs": [
        {
          "internalType": "string",
          "name": "",
          "type": "string"
        }
      ],
      "stateMutability": "view",
      "type": "function"
    },
    {
      "inputs": [
        {
          "internalType": "uint256",
          "name": "",
          "type": "uint256"
        }
      ],
      "name": "tokenCourse",
      "outputs": [
        {
          "internalType": "uint256",
          "name": "",
          "type": "uint256"
        }
      ],
      "stateMutability": "view",
      "type": "function"
    },
    {
      "inputs": [
        {
          "internalType": "uint256",
          "name": "tokenId",
          "type": "uint256"
        }
      ],
      "name": "tokenURI",
      "outputs": [
        {
          "internalType": "string",
          "name": "",
          "type": "string"
        }
      ],
      "stateMutability": "view",
      "type": "function"
    },
    {
      "inputs": [
        {
          "internalType": "address",
          "name": "from",
          "type": "address"
        },
        {
          "internalType": "address",
          "name": "to",
          "type": "address"
        },
        {
          "internalType": "uint256",
          "name": "tokenId",
          "type": "uint256"
        }
      ],
      "name": "transferFrom",
      "outputs": [],
      "stateMutability": "nonpayable",
      "type": "function"
    },
    {
      "inputs": [
        {
          "internalType": "address",
          "name": "newOwner",
          "type": "address"
        }
      ],
      "name": "transferOwnership",
      "outputs": [],
      "stateMutability": "nonpayable",
      "type": "function"
    }
  ],
  "bytecode": "0x60806040523480156200001157600080fd5b50604051620033ce380380620033ce833981810160405281019062000037919062000348565b33828281600090816200004b919062000618565b5080600190816200005d919062000618565b505050600073ffffffffffffffffffffffffffffffffffffffff168173ffffffffffffffffffffffffffffffffffffffff1603620000d55760006040517f1e4fbdf7000000000000000000000000000000000000000000000000000000008152600401620000cc919062000744565b60405180910390fd5b620000e681620000ef60201b60201c565b50505062000761565b6000600760009054906101000a900473ffffffffffffffffffffffffffffffffffffffff16905081600760006101000a81548173ffffffffffffffffffffffffffffffffffffffff021916908373ffffffffffffffffffffffffffffffffffffffff1602179055508173ffffffffffffffffffffffffffffffffffffffff168173ffffffffffffffffffffffffffffffffffffffff167f8be0079c531659141344cd1fd0a4f28419497f9722a3daafe3b4186f6b6457e060405160405180910390a35050565b6000604051905090565b600080fd5b600080fd5b600080fd5b600080fd5b6000601f19601f8301169050919050565b7f4e487b7100000000000000000000000000000000000000000000000000000000600052604160045260246000fd5b6200021e82620001d3565b810181811067ffffffffffffffff8211171562000240576200023f620001e4565b5b80604052505050565b600062000255620001b5565b905062000263828262000213565b919050565b600067ffffffffffffffff821115620002865762000285620001e4565b5b6200029182620001d3565b9050602081019050919050565b60005b83811015620002be578082015181840152602081019050620002a1565b60008484015250505050565b6000620002e1620002db8462000268565b62000249565b9050828152602081018484840111156200030057620002ff620001ce565b5b6200030d8482856200029e565b509392505050565b600082601f8301126200032d576200032c620001c9565b5b81516200033f848260208601620002ca565b91505092915050565b60008060408385031215620003625762000361620001bf565b5b600083015167ffffffffffffffff811115620003835762000382620001c4565b5b620003918582860162000315565b925050602083015167ffffffffffffffff811115620003b557620003b4620001c4565b5b620003c38582860162000315565b9150509250929050565b600081519050919050565b7f4e487b7100000000000000000000000000000000000000000000000000000000600052602260045260246000fd5b600060028204905060018216806200042057607f821691505b602082108103620004365762000435620003d8565b5b50919050565b60008190508160005260206000209050919050565b60006020601f8301049050919050565b600082821b905092915050565b600060088302620004a07fffffffffffffffffffffffffffffffffffffffffffffffffffffffffffffffff8262000461565b620004ac868362000461565b95508019841693508086168417925050509392505050565b6000819050919050565b6000819050919050565b6000620004f9620004f3620004ed84620004c4565b620004ce565b620004c4565b9050919050565b6000819050919050565b6200051583620004d8565b6200052d620005248262000500565b8484546200046e565b825550505050565b600090565b6200054462000535565b620005518184846200050a565b505050565b5b8181101562000579576200056d6000826200053a565b60018101905062000557565b5050565b601f821115620005c85762000592816200043c565b6200059d8462000451565b81016020851015620005ad578190505b620005c5620005bc8562000451565b83018262000556565b50505b505050565b600082821c905092915050565b6000620005ed60001984600802620005cd565b1980831691505092915050565b6000620006088383620005da565b9150826002028217905092915050565b6200062382620003cd565b67ffffffffffffffff8111156200063f576200063e620001e4565b5b6200064b825462000407565b620006588282856200057d565b600060209050601f8311600181146200069057600084156200067b578287015190505b620006878582620005fa565b865550620006f7565b601f198416620006a0866200043c565b60005b82811015620006ca57848901518255600182019150602085019450602081019050620006a3565b86831015620006ea5784890151620006e6601f891682620005da565b8355505b6001600288020188555050505b505050505050565b600073ffffffffffffffffffffffffffffffffffffffff82169050919050565b60006200072c82620006ff565b9050919050565b6200073e816200071f565b82525050565b60006020820190506200075b600083018462000733565b92915050565b612c5d80620007716000396000f3fe608060405234801561001057600080fd5b50600436106101375760003560e01c806370a08231116100b8578063a22cb4651161007c578063a22cb4651461034c578063b88d4fde14610368578063c87b56dd14610384578063cb064ddf146103b4578063e985e9c5146103e4578063f2fde38b1461041457610137565b806370a08231146102a6578063715018a6146102d65780637e93cdf8146102e05780638da5cb5b1461031057806395d89b411461032e57610137565b806338a7543e116100ff57806338a7543e146101f257806342842e0e1461022257806342966c681461023e578063495289be1461025a5780636352211e1461027657610137565b806301ffc9a71461013c57806306fdde031461016c578063081812fc1461018a578063095ea7b3146101ba57806323b872dd146101d6575b600080fd5b61015660048036038101906101519190611fb5565b610430565b6040516101639190611ffd565b60405180910390f35b610174610491565b60405161018191906120a8565b60405180910390f35b6101a4600480360381019061019f9190612100565b610523565b6040516101b1919061216e565b60405180910390f35b6101d460048036038101906101cf91906121b5565b61053f565b005b6101f060048036038101906101eb91906121f5565b610555565b005b61020c60048036038101906102079190612248565b610657565b6040516102199190611ffd565b60405180910390f35b61023c600480360381019061023791906121f5565b610677565b005b61025860048036038101906102539190612100565b610697565b005b610274600480360381019061026f91906122a1565b6107cd565b005b610290600480360381019061028b9190612100565b61087e565b60405161029d919061216e565b60405180910390f35b6102c060048036038101906102bb9190612248565b610890565b6040516102cd91906122f0565b60405180910390f35b6102de61094a565b005b6102fa60048036038101906102f59190612100565b61095e565b60405161030791906122f0565b60405180910390f35b610318610976565b604051610325919061216e565b60405180910390f35b6103366109a0565b60405161034391906120a8565b60405180910390f35b610366600480360381019061036191906122a1565b610a32565b005b610382600480360381019061037d9190612440565b610a48565b005b61039e60048036038101906103999190612100565b610a6d565b6040516103ab91906120a8565b60405180910390f35b6103ce60048036038101906103c99190612523565b610b80565b6040516103db91906122f0565b60405180910390f35b6103fe60048036038101906103f99190612597565b610d38565b60405161040b9190611ffd565b60405180910390f35b61042e60048036038101906104299190612248565b610dcc565b005b6000634906490660e01b7bffffffffffffffffffffffffffffffffffffffffffffffffffffffff1916827bffffffffffffffffffffffffffffffffffffffffffffffffffffffff1916148061048a575061048982610e52565b5b9050919050565b6060600080546104a090612606565b80601f01602080910402602001604051908101604052809291908181526020018280546104cc90612606565b80156105195780601f106104ee57610100808354040283529160200191610519565b820191906000526020600020905b8154815290600101906020018083116104fc57829003601f168201915b5050505050905090565b600061052e82610f34565b5061053882610fbc565b9050919050565b610551828261054c610ff9565b611001565b5050565b600073ffffffffffffffffffffffffffffffffffffffff168273ffffffffffffffffffffffffffffffffffffffff16036105c75760006040517f64a0ae920000000000000000000000000000000000000000000000000000000081526004016105be919061216e565b60405180910390fd5b60006105db83836105d6610ff9565b611013565b90508373ffffffffffffffffffffffffffffffffffffffff168173ffffffffffffffffffffffffffffffffffffffff1614610651578382826040517f64283d7b00000000000000000000000000000000000000000000000000000000815260040161064893929190612637565b60405180910390fd5b50505050565b60096020528060005260406000206000915054906101000a900460ff1681565b61069283838360405180602001604052806000815250610a48565b505050565b60006106a28261087e565b905060006106b7826106b2610ff9565b610d38565b806106fc57506106c5610ff9565b73ffffffffffffffffffffffffffffffffffffffff166106e484610523565b73ffffffffffffffffffffffffffffffffffffffff16145b9050610706610ff9565b73ffffffffffffffffffffffffffffffffffffffff168273ffffffffffffffffffffffffffffffffffffffff16148061073c5750805b80610780575061074a610ff9565b73ffffffffffffffffffffffffffffffffffffffff16610768610976565b73ffffffffffffffffffffffffffffffffffffffff16145b6107bf576040517f08c379a00000000000000000000000000000000000000000000000000000000081526004016107b6906126ba565b60405180910390fd5b6107c88361122d565b505050565b6107d56112b3565b80600960008473ffffffffffffffffffffffffffffffffffffffff1673ffffffffffffffffffffffffffffffffffffffff16815260200190815260200160002060006101000a81548160ff0219169083151502179055508173ffffffffffffffffffffffffffffffffffffffff167fc6aeabbc4fc4eb208b2b4cec7249245167cb6191c47e2e6f82a3cd59a89ce7e1826040516108729190611ffd565b60405180910390a25050565b600061088982610f34565b9050919050565b60008073ffffffffffffffffffffffffffffffffffffffff168273ffffffffffffffffffffffffffffffffffffffff16036109035760006040517f89c62b640000000000000000000000000000000000000000000000000000000081526004016108fa919061216e565b60405180910390fd5b600360008373ffffffffffffffffffffffffffffffffffffffff1673ffffffffffffffffffffffffffffffffffffffff168152602001908152602001600020549050919050565b6109526112b3565b61095c600061133a565b565b600a6020528060005260406000206000915090505481565b6000600760009054906101000a900473ffffffffffffffffffffffffffffffffffffffff16905090565b6060600180546109af90612606565b80601f01602080910402602001604051908101604052809291908181526020018280546109db90612606565b8015610a285780601f106109fd57610100808354040283529160200191610a28565b820191906000526020600020905b815481529060010190602001808311610a0b57829003601f168201915b5050505050905090565b610a44610a3d610ff9565b8383611400565b5050565b610a53848484610555565b610a67610a5e610ff9565b8585858561156f565b50505050565b6060610a7882610f34565b506000600660008481526020019081526020016000208054610a9990612606565b80601f0160208091040260200160405190810160405280929190818152602001828054610ac590612606565b8015610b125780601f10610ae757610100808354040283529160200191610b12565b820191906000526020600020905b815481529060010190602001808311610af557829003601f168201915b505050505090506000610b23611720565b90506000815103610b38578192505050610b7b565b600082511115610b6d578082604051602001610b55929190612716565b60405160208183030381529060405292505050610b7b565b610b7684611737565b925050505b919050565b6000600960003373ffffffffffffffffffffffffffffffffffffffff1673ffffffffffffffffffffffffffffffffffffffff16815260200190815260200160002060009054906101000a900460ff1680610c0c5750610bdd610976565b73ffffffffffffffffffffffffffffffffffffffff163373ffffffffffffffffffffffffffffffffffffffff16145b610c4b576040517f08c379a0000000000000000000000000000000000000000000000000000000008152600401610c4290612786565b60405180910390fd5b60086000815480929190610c5e906127d5565b919050555060006008549050610c7486826117a0565b610cc28186868080601f016020809104026020016040519081016040528093929190818152602001838380828437600081840152601f19601f820116905080830192505050505050506117be565b82600a60008381526020019081526020016000208190555082818773ffffffffffffffffffffffffffffffffffffffff167fc54c7ef12eff8d20c7f387ef3dd8fb555d40e92c7faa7a200d3c5a4da6e2a7ed8888604051610d2492919061284a565b60405180910390a480915050949350505050565b6000600560008473ffffffffffffffffffffffffffffffffffffffff1673ffffffffffffffffffffffffffffffffffffffff16815260200190815260200160002060008373ffffffffffffffffffffffffffffffffffffffff1673ffffffffffffffffffffffffffffffffffffffff16815260200190815260200160002060009054906101000a900460ff16905092915050565b610dd46112b3565b600073ffffffffffffffffffffffffffffffffffffffff168173ffffffffffffffffffffffffffffffffffffffff1603610e465760006040517f1e4fbdf7000000000000000000000000000000000000000000000000000000008152600401610e3d919061216e565b60405180910390fd5b610e4f8161133a565b50565b60007f80ac58cd000000000000000000000000000000000000000000000000000000007bffffffffffffffffffffffffffffffffffffffffffffffffffffffff1916827bffffffffffffffffffffffffffffffffffffffffffffffffffffffff19161480610f1d57507f5b5e139f000000000000000000000000000000000000000000000000000000007bffffffffffffffffffffffffffffffffffffffffffffffffffffffff1916827bffffffffffffffffffffffffffffffffffffffffffffffffffffffff1916145b80610f2d5750610f2c8261181a565b5b9050919050565b600080610f4083611884565b9050600073ffffffffffffffffffffffffffffffffffffffff168173ffffffffffffffffffffffffffffffffffffffff1603610fb357826040517f7e273289000000000000000000000000000000000000000000000000000000008152600401610faa91906122f0565b60405180910390fd5b80915050919050565b60006004600083815260200190815260200160002060009054906101000a900473ffffffffffffffffffffffffffffffffffffffff169050919050565b600033905090565b61100e83838360016118c1565b505050565b60008061101f84611884565b9050600073ffffffffffffffffffffffffffffffffffffffff168373ffffffffffffffffffffffffffffffffffffffff161461106157611060818486611a86565b5b600073ffffffffffffffffffffffffffffffffffffffff168173ffffffffffffffffffffffffffffffffffffffff16146110f2576110a36000856000806118c1565b6001600360008373ffffffffffffffffffffffffffffffffffffffff1673ffffffffffffffffffffffffffffffffffffffff168152602001908152602001600020600082825403925050819055505b600073ffffffffffffffffffffffffffffffffffffffff168573ffffffffffffffffffffffffffffffffffffffff1614611175576001600360008773ffffffffffffffffffffffffffffffffffffffff1673ffffffffffffffffffffffffffffffffffffffff168152602001908152602001600020600082825401925050819055505b846002600086815260200190815260200160002060006101000a81548173ffffffffffffffffffffffffffffffffffffffff021916908373ffffffffffffffffffffffffffffffffffffffff160217905550838573ffffffffffffffffffffffffffffffffffffffff168273ffffffffffffffffffffffffffffffffffffffff167fddf252ad1be2c89b69c2b068fc378daa952ba7f163c4a11628f55a4df523b3ef60405160405180910390a4809150509392505050565b600061123c6000836000611013565b9050600073ffffffffffffffffffffffffffffffffffffffff168173ffffffffffffffffffffffffffffffffffffffff16036112af57816040517f7e2732890000000000000000000000000000000000000000000000000000000081526004016112a691906122f0565b60405180910390fd5b5050565b6112bb610ff9565b73ffffffffffffffffffffffffffffffffffffffff166112d9610976565b73ffffffffffffffffffffffffffffffffffffffff1614611338576112fc610ff9565b6040517f118cdaa700000000000000000000000000000000000000000000000000000000815260040161132f919061216e565b60405180910390fd5b565b6000600760009054906101000a900473ffffffffffffffffffffffffffffffffffffffff16905081600760006101000a81548173ffffffffffffffffffffffffffffffffffffffff021916908373ffffffffffffffffffffffffffffffffffffffff1602179055508173ffffffffffffffffffffffffffffffffffffffff168173ffffffffffffffffffffffffffffffffffffffff167f8be0079c531659141344cd1fd0a4f28419497f9722a3daafe3b4186f6b6457e060405160405180910390a35050565b600073ffffffffffffffffffffffffffffffffffffffff168273ffffffffffffffffffffffffffffffffffffffff160361147157816040517f5b08ba18000000000000000000000000000000000000000000000000000000008152600401611468919061216e565b60405180910390fd5b80600560008573ffffffffffffffffffffffffffffffffffffffff1673ffffffffffffffffffffffffffffffffffffffff16815260200190815260200160002060008473ffffffffffffffffffffffffffffffffffffffff1673ffffffffffffffffffffffffffffffffffffffff16815260200190815260200160002060006101000a81548160ff0219169083151502179055508173ffffffffffffffffffffffffffffffffffffffff168373ffffffffffffffffffffffffffffffffffffffff167f17307eab39ab6107e8899845ad3d59bd9653f200f220920489ca2b5937696c31836040516115629190611ffd565b60405180910390a3505050565b60008373ffffffffffffffffffffffffffffffffffffffff163b1115611719578273ffffffffffffffffffffffffffffffffffffffff1663150b7a02868685856040518563ffffffff1660e01b81526004016115ce94939291906128c3565b6020604051808303816000875af192505050801561160a57506040513d601f19601f820116820180604052508101906116079190612924565b60015b61168e573d806000811461163a576040519150601f19603f3d011682016040523d82523d6000602084013e61163f565b606091505b50600081510361168657836040517f64a0ae9200000000000000000000000000000000000000000000000000000000815260040161167d919061216e565b60405180910390fd5b805160208201fd5b63150b7a0260e01b7bffffffffffffffffffffffffffffffffffffffffffffffffffffffff1916817bffffffffffffffffffffffffffffffffffffffffffffffffffffffff19161461171757836040517f64a0ae9200000000000000000000000000000000000000000000000000000000815260040161170e919061216e565b60405180910390fd5b505b5050505050565b606060405180602001604052806000815250905090565b606061174282610f34565b50600061174d611720565b9050600081511161176d5760405180602001604052806000815250611798565b8061177784611b4a565b604051602001611788929190612716565b6040516020818303038152906040525b915050919050565b6117ba828260405180602001604052806000815250611c18565b5050565b806006600084815260200190815260200160002090816117de9190612afd565b507ff8e1a15aba9398e019f0b49df1a4fde98ee17ae345cb5f6b5e2c27f5033e8ce78260405161180e91906122f0565b60405180910390a15050565b60007f01ffc9a7000000000000000000000000000000000000000000000000000000007bffffffffffffffffffffffffffffffffffffffffffffffffffffffff1916827bffffffffffffffffffffffffffffffffffffffffffffffffffffffff1916149050919050565b60006002600083815260200190815260200160002060009054906101000a900473ffffffffffffffffffffffffffffffffffffffff169050919050565b80806118fa5750600073ffffffffffffffffffffffffffffffffffffffff168273ffffffffffffffffffffffffffffffffffffffff1614155b15611a2e57600061190a84610f34565b9050600073ffffffffffffffffffffffffffffffffffffffff168373ffffffffffffffffffffffffffffffffffffffff161415801561197557508273ffffffffffffffffffffffffffffffffffffffff168173ffffffffffffffffffffffffffffffffffffffff1614155b801561198857506119868184610d38565b155b156119ca57826040517fa9fbf51f0000000000000000000000000000000000000000000000000000000081526004016119c1919061216e565b60405180910390fd5b8115611a2c57838573ffffffffffffffffffffffffffffffffffffffff168273ffffffffffffffffffffffffffffffffffffffff167f8c5be1e5ebec7d5bd14f71427d1e84f3dd0314c0f7b2291e5b200ac8c7c3b92560405160405180910390a45b505b836004600085815260200190815260200160002060006101000a81548173ffffffffffffffffffffffffffffffffffffffff021916908373ffffffffffffffffffffffffffffffffffffffff16021790555050505050565b611a91838383611c3c565b611b4557600073ffffffffffffffffffffffffffffffffffffffff168373ffffffffffffffffffffffffffffffffffffffff1603611b0657806040517f7e273289000000000000000000000000000000000000000000000000000000008152600401611afd91906122f0565b60405180910390fd5b81816040517f177e802f000000000000000000000000000000000000000000000000000000008152600401611b3c929190612bcf565b60405180910390fd5b505050565b606060006001611b5984611cfd565b01905060008167ffffffffffffffff811115611b7857611b77612315565b5b6040519080825280601f01601f191660200182016040528015611baa5781602001600182028036833780820191505090505b509050600082602083010190505b600115611c0d578080600190039150507f3031323334353637383961626364656600000000000000000000000000000000600a86061a8153600a8581611c0157611c00612bf8565b5b04945060008503611bb8575b819350505050919050565b611c228383611e50565b611c37611c2d610ff9565b600085858561156f565b505050565b60008073ffffffffffffffffffffffffffffffffffffffff168373ffffffffffffffffffffffffffffffffffffffff1614158015611cf457508273ffffffffffffffffffffffffffffffffffffffff168473ffffffffffffffffffffffffffffffffffffffff161480611cb55750611cb48484610d38565b5b80611cf357508273ffffffffffffffffffffffffffffffffffffffff16611cdb83610fbc565b73ffffffffffffffffffffffffffffffffffffffff16145b5b90509392505050565b600080600090507a184f03e93ff9f4daa797ed6e38ed64bf6a1f0100000000000000008310611d5b577a184f03e93ff9f4daa797ed6e38ed64bf6a1f0100000000000000008381611d5157611d50612bf8565b5b0492506040810190505b6d04ee2d6d415b85acef81000000008310611d98576d04ee2d6d415b85acef81000000008381611d8e57611d8d612bf8565b5b0492506020810190505b662386f26fc100008310611dc757662386f26fc100008381611dbd57611dbc612bf8565b5b0492506010810190505b6305f5e1008310611df0576305f5e1008381611de657611de5612bf8565b5b0492506008810190505b6127108310611e15576127108381611e0b57611e0a612bf8565b5b0492506004810190505b60648310611e385760648381611e2e57611e2d612bf8565b5b0492506002810190505b600a8310611e47576001810190505b80915050919050565b600073ffffffffffffffffffffffffffffffffffffffff168273ffffffffffffffffffffffffffffffffffffffff1603611ec25760006040517f64a0ae92000000000000000000000000000000000000000000000000000000008152600401611eb9919061216e565b60405180910390fd5b6000611ed083836000611013565b9050600073ffffffffffffffffffffffffffffffffffffffff168173ffffffffffffffffffffffffffffffffffffffff1614611f445760006040517f73c6ac6e000000000000000000000000000000000000000000000000000000008152600401611f3b919061216e565b60405180910390fd5b505050565b6000604051905090565b600080fd5b600080fd5b60007fffffffff0000000000000000000000000000000000000000000000000000000082169050919050565b611f9281611f5d565b8114611f9d57600080fd5b50565b600081359050611faf81611f89565b92915050565b600060208284031215611fcb57611fca611f53565b5b6000611fd984828501611fa0565b91505092915050565b60008115159050919050565b611ff781611fe2565b82525050565b60006020820190506120126000830184611fee565b92915050565b600081519050919050565b600082825260208201905092915050565b60005b83811015612052578082015181840152602081019050612037565b60008484015250505050565b6000601f19601f8301169050919050565b600061207a82612018565b6120848185612023565b9350612094818560208601612034565b61209d8161205e565b840191505092915050565b600060208201905081810360008301526120c2818461206f565b905092915050565b6000819050919050565b6120dd816120ca565b81146120e857600080fd5b50565b6000813590506120fa816120d4565b92915050565b60006020828403121561211657612115611f53565b5b6000612124848285016120eb565b91505092915050565b600073ffffffffffffffffffffffffffffffffffffffff82169050919050565b60006121588261212d565b9050919050565b6121688161214d565b82525050565b6000602082019050612183600083018461215f565b92915050565b6121928161214d565b811461219d57600080fd5b50565b6000813590506121af81612189565b92915050565b600080604083850312156121cc576121cb611f53565b5b60006121da858286016121a0565b92505060206121eb858286016120eb565b9150509250929050565b60008060006060848603121561220e5761220d611f53565b5b600061221c868287016121a0565b935050602061222d868287016121a0565b925050604061223e868287016120eb565b9150509250925092565b60006020828403121561225e5761225d611f53565b5b600061226c848285016121a0565b91505092915050565b61227e81611fe2565b811461228957600080fd5b50565b60008135905061229b81612275565b92915050565b600080604083850312156122b8576122b7611f53565b5b60006122c6858286016121a0565b92505060206122d78582860161228c565b9150509250929050565b6122ea816120ca565b82525050565b600060208201905061230560008301846122e1565b92915050565b600080fd5b600080fd5b7f4e487b7100000000000000000000000000000000000000000000000000000000600052604160045260246000fd5b61234d8261205e565b810181811067ffffffffffffffff8211171561236c5761236b612315565b5b80604052505050565b600061237f611f49565b905061238b8282612344565b919050565b600067ffffffffffffffff8211156123ab576123aa612315565b5b6123b48261205e565b9050602081019050919050565b82818337600083830152505050565b60006123e36123de84612390565b612375565b9050828152602081018484840111156123ff576123fe612310565b5b61240a8482856123c1565b509392505050565b600082601f8301126124275761242661230b565b5b81356124378482602086016123d0565b91505092915050565b6000806000806080858703121561245a57612459611f53565b5b6000612468878288016121a0565b9450506020612479878288016121a0565b935050604061248a878288016120eb565b925050606085013567ffffffffffffffff8111156124ab576124aa611f58565b5b6124b787828801612412565b91505092959194509250565b600080fd5b600080fd5b60008083601f8401126124e3576124e261230b565b5b8235905067ffffffffffffffff811115612500576124ff6124c3565b5b60208301915083600182028301111561251c5761251b6124c8565b5b9250929050565b6000806000806060858703121561253d5761253c611f53565b5b600061254b878288016121a0565b945050602085013567ffffffffffffffff81111561256c5761256b611f58565b5b612578878288016124cd565b9350935050604061258b878288016120eb565b91505092959194509250565b600080604083850312156125ae576125ad611f53565b5b60006125bc858286016121a0565b92505060206125cd858286016121a0565b9150509250929050565b7f4e487b7100000000000000000000000000000000000000000000000000000000600052602260045260246000fd5b6000600282049050600182168061261e57607f821691505b602082108103612631576126306125d7565b5b50919050565b600060608201905061264c600083018661215f565b61265960208301856122e1565b612666604083018461215f565b949350505050565b7f4e6f7420617574686f72697a656420746f206275726e00000000000000000000600082015250565b60006126a4601683612023565b91506126af8261266e565b602082019050919050565b600060208201905081810360008301526126d381612697565b9050919050565b600081905092915050565b60006126f082612018565b6126fa81856126da565b935061270a818560208601612034565b80840191505092915050565b600061272282856126e5565b915061272e82846126e5565b91508190509392505050565b7f4e6f7420617574686f72697a656420746f206d696e7400000000000000000000600082015250565b6000612770601683612023565b915061277b8261273a565b602082019050919050565b6000602082019050818103600083015261279f81612763565b9050919050565b7f4e487b7100000000000000000000000000000000000000000000000000000000600052601160045260246000fd5b60006127e0826120ca565b91507fffffffffffffffffffffffffffffffffffffffffffffffffffffffffffffffff8203612812576128116127a6565b5b600182019050919050565b60006128298385612023565b93506128368385846123c1565b61283f8361205e565b840190509392505050565b6000602082019050818103600083015261286581848661281d565b90509392505050565b600081519050919050565b600082825260208201905092915050565b60006128958261286e565b61289f8185612879565b93506128af818560208601612034565b6128b88161205e565b840191505092915050565b60006080820190506128d8600083018761215f565b6128e5602083018661215f565b6128f260408301856122e1565b8181036060830152612904818461288a565b905095945050505050565b60008151905061291e81611f89565b92915050565b60006020828403121561293a57612939611f53565b5b60006129488482850161290f565b91505092915050565b60008190508160005260206000209050919050565b60006020601f8301049050919050565b600082821b905092915050565b6000600883026129b37fffffffffffffffffffffffffffffffffffffffffffffffffffffffffffffffff82612976565b6129bd8683612976565b95508019841693508086168417925050509392505050565b6000819050919050565b60006129fa6129f56129f0846120ca565b6129d5565b6120ca565b9050919050565b6000819050919050565b612a14836129df565b612a28612a2082612a01565b848454612983565b825550505050565b600090565b612a3d612a30565b612a48818484612a0b565b505050565b5b81811015612a6c57612a61600082612a35565b600181019050612a4e565b5050565b601f821115612ab157612a8281612951565b612a8b84612966565b81016020851015612a9a578190505b612aae612aa685612966565b830182612a4d565b50505b505050565b600082821c905092915050565b6000612ad460001984600802612ab6565b1980831691505092915050565b6000612aed8383612ac3565b9150826002028217905092915050565b612b0682612018565b67ffffffffffffffff811115612b1f57612b1e612315565b5b612b298254612606565b612b34828285612a70565b600060209050601f831160018114612b675760008415612b55578287015190505b612b5f8582612ae1565b865550612bc7565b601f198416612b7586612951565b60005b82811015612b9d57848901518255600182019150602085019450602081019050612b78565b86831015612bba5784890151612bb6601f891682612ac3565b8355505b6001600288020188555050505b505050505050565b6000604082019050612be4600083018561215f565b612bf160208301846122e1565b9392505050565b7f4e487b7100000000000000000000000000000000000000000000000000000000600052601260045260246000fdfea264697066735822122021d0946e77b1df8be39abc1553ec1f1500b8e2fd706b5b64ce704a05600388b264736f6c63430008140033",
  "linkReferences": {},
  "deployedLinkReferences": {}
}