{
  "_format": "hh-sol-artifact-1",
  "contractName": "CertificateNFT",
  "sourceName": "contracts/CertificateNFT.sol",
  "abi": [
    {
      "inputs": [
        {
          "internalType": "string",
          "name": "name_",
          "type": "string"
        },
        {
          "internalType": "string",
          "name": "symbol_",
          "type": "string"
        }
      ],
      "stateMutability": "nonpayable",
      "type": "constructor"
    },
    {
      "inputs": [
        {
          "internalType": "address",
          "name": "sender",
          "type": "address"
        },
        {
          "internalType": "uint256",
          "name": "tokenId",
          "type": "uint256"
        },
        {
          "internalType": "address",
          "name": "owner",
          "type": "address"
        }
      ],
      "name": "ERC721IncorrectOwner",
      "type": "error"
    },
    {
      "inputs": [
        {
          "internalType": "address",
          "name": "operator",
          "type": "address"
        },
        {
          "internalType": "uint256",
          "name": "tokenId",
          "type": "uint256"
        }
      ],
      "name": "ERC721InsufficientApproval",
      "type": "error"
    },
    {
      "inputs": [
        {
          "internalType": "address",
          "name": "approver",
          "type": "address"
        }
      ],
      "name": "ERC721InvalidApprover",
      "type": "error"
    },
    {
      "inputs": [
        {
          "internalType": "address",
          "name": "operator",
          "type": "address"
        }
      ],
      "name": "ERC721InvalidOperator",
      "type": "error"
    },
    {
      "inputs": [
        {
          "internalType": "address",
          "name": "owner",
          "type": "address"
        }
      ],
      "name": "ERC721InvalidOwner",
      "type": "error"
    },
    {
      "inputs": [
        {
          "internalType": "address",
          "name": "receiver",
          "type": "address"
        }
      ],
      "name": "ERC721InvalidReceiver",
      "type": "error"
    },
    {
      "inputs": [
        {
          "internalType": "address",
          "name": "sender",
          "type": "address"
        }
      ],
      "name": "ERC721InvalidSender",
      "type": "error"
    },
    {
      "inputs": [
        {
          "internalType": "uint256",
          "name": "tokenId",
          "type": "uint256"
        }
      ],
      "name": "ERC721NonexistentToken",
      "type": "error"
    },
    {
      "inputs": [
        {
          "internalType": "address",
          "name": "owner",
          "type": "address"
        }
      ],
      "name": "OwnableInvalidOwner",
      "type": "error"
    },
    {
      "inputs": [
        {
          "internalType": "address",
          "name": "account",
          "type": "address"
        }
      ],
      "name": "OwnableUnauthorizedAccount",
      "type": "error"
    },
    {
      "anonymous": false,
      "inputs": [
        {
          "indexed": true,
          "internalType": "address",
          "name": "owner",
          "type": "address"
        },
        {
          "indexed": true,
          "internalType": "address",
          "name": "approved",
          "type": "address"
        },
        {
          "indexed": true,
          "internalType": "uint256",
          "name": "tokenId",
          "type": "uint256"
        }
      ],
      "name": "Approval",
      "type": "event"
    },
    {
      "anonymous": false,
      "inputs": [
        {
          "indexed": true,
          "internalType": "address",
          "name": "owner",
          "type": "address"
        },
        {
          "indexed": true,
          "internalType": "address",
          "name": "operator",
          "type": "address"
        },
        {
          "indexed": false,
          "internalType": "bool",
          "name": "approved",
          "type": "bool"
        }
      ],
      "name": "ApprovalForAll",
      "type": "event"
    },
    {
      "anonymous": false,
      "inputs": [
        {
          "indexed": false,
          "internalType": "uint256",
          "name": "_fromTokenId",
          "type": "uint256"
        },
        {
          "indexed": false,
          "internalType": "uint256",
          "name": "_toTokenId",
          "type": "uint256"
        }
      ],
      "name": "BatchMetadataUpdate",
      "type": "event"
    },
    {
      "anonymous": false,
      "inputs": [
        {
          "indexed": true,
          "internalType": "address",
          "name": "to",
          "type": "address"
        },
        {
          "indexed": true,
          "internalType": "uint256",
          "name": "tokenId",
          "type": "uint256"
        },
        {
          "indexed": true,
          "internalType": "uint256",
          "name": "courseId",
          "type": "uint256"
        },
        {
          "indexed": false,
          "internalType": "string",
          "name": "uri",
          "type": "string"
        }
      ],
      "name": "CertificateMinted",
      "type": "event"
    },
    {
      "anonymous": false,
      "inputs": [
        {
          "indexed": true,
          "internalType": "address",
          "name": "issuer",
          "type": "address"
        },
        {
          "indexed": false,
          "internalType": "bool",
          "name": "allowed",
          "type": "bool"
        }
      ],
      "name": "IssuerSet",
      "type": "event"
    },
    {
      "anonymous": false,
      "inputs": [
        {
          "indexed": false,
          "internalType": "uint256",
          "name": "_tokenId",
          "type": "uint256"
        }
      ],
      "name": "MetadataUpdate",
      "type": "event"
    },
    {
      "anonymous": false,
      "inputs": [
        {
          "indexed": true,
          "internalType": "address",
          "name": "previousOwner",
          "type": "address"
        },
        {
          "indexed": true,
          "internalType": "address",
          "name": "newOwner",
          "type": "address"
        }
      ],
      "name": "OwnershipTransferred",
      "type": "event"
    },
    {
      "anonymous": false,
      "inputs": [
        {
          "indexed": true,
          "internalType": "address",
          "name": "from",
          "type": "address"
        },
        {
          "indexed": true,
          "internalType": "address",
          "name": "to",
          "type": "address"
        },
        {
          "indexed": true,
          "internalType": "uint256",
          "name": "tokenId",
          "type": "uint256"
        }
      ],
      "name": "Transfer",
      "type": "event"
    },
    {
      "inputs": [
        {
          "internalType": "address",
          "name": "",
          "type": "address"
        },
        {
          "internalType": "uint256",
          "name": "",
          "type": "uint256"
        }
      ],
      "name": "approve",
      "outputs": [],
      "stateMutability": "nonpayable",
      "type": "function"
    },
    {
      "inputs": [
        {
          "internalType": "address",
          "name": "owner",
          "type": "address"
        }
      ],
      "name": "balanceOf",
      "outputs": [
        {
          "internalType": "uint256",
          "name": "",
          "type": "uint256"
        }
      ],
      "stateMutability": "view",
      "type": "function"
    },
    {
      "inputs": [
        {
          "internalType": "uint256",
          "name": "tokenId",
          "type": "uint256"
        }
      ],
      "name": "burn",
      "outputs": [],
      "stateMutability": "nonpayable",
      "type": "function"
    },
    {
      "inputs": [
        {
          "internalType": "uint256",
          "name": "tokenId",
          "type": "uint256"
        }
      ],
      "name": "getApproved",
      "outputs": [
        {
          "internalType": "address",
          "name": "",
          "type": "address"
        }
      ],
      "stateMutability": "view",
      "type": "function"
    },
    {
      "inputs": [
        {
          "internalType": "address",
          "name": "owner",
          "type": "address"
        },
        {
          "internalType": "address",
          "name": "operator",
          "type": "address"
        }
      ],
      "name": "isApprovedForAll",
      "outputs": [
        {
          "internalType": "bool",
          "name": "",
          "type": "bool"
        }
      ],
      "stateMutability": "view",
      "type": "function"
    },
    {
      "inputs": [
        {
          "internalType": "address",
          "name": "",
          "type": "address"
        }
      ],
      "name": "issuers",
      "outputs": [
        {
          "internalType": "bool",
          "name": "",
          "type": "bool"
        }
      ],
      "stateMutability": "view",
      "type": "function"
    },
    {
      "inputs": [
        {
          "internalType": "address",
          "name": "to",
          "type": "address"
        },
        {
          "internalType": "string",
          "name": "tokenURI",
          "type": "string"
        },
        {
          "internalType": "uint256",
          "name": "courseId",
          "type": "uint256"
        }
      ],
      "name": "mintCertificate",
      "outputs": [
        {
          "internalType": "uint256",
          "name": "",
          "type": "uint256"
        }
      ],
      "stateMutability": "nonpayable",
      "type": "function"
    },
    {
      "inputs": [],
      "name": "name",
      "outputs": [
        {
          "internalType": "string",
          "name": "",
          "type": "string"
        }
      ],
      "stateMutability": "view",
      "type": "function"
    },
    {
      "inputs": [],
      "name": "owner",
      "outputs": [
        {
          "internalType": "address",
          "name": "",
          "type": "address"
        }
      ],
      "stateMutability": "view",
      "type": "function"
    },
    {
      "inputs": [
        {
          "internalType": "address",
          "name": "",
          "type": "address"
        },
        {
          "internalType": "uint256",
          "name": "",
          "type": "uint256"
        }
      ],
      "name": "ownerCourseToken",
      "outputs": [
        {
          "internalType": "uint256",
          "name": "",
          "type": "uint256"
        }
      ],
      "stateMutability": "view",
      "type": "function"
    },
    {
      "inputs": [
        {
          "internalType": "uint256",
          "name": "tokenId",
          "type": "uint256"
        }
      ],
      "name": "ownerOf",
      "outputs": [
        {
          "internalType": "address",
          "name": "",
          "type": "address"
        }
      ],
      "stateMutability": "view",
      "type": "function"
    },
    {
      "inputs": [],
      "name": "renounceOwnership",
      "outputs": [],
      "stateMutability": "nonpayable",
      "type": "function"
    },
    {
      "inputs": [
        {
          "internalType": "address",
          "name": "from",
          "type": "address"
        },
        {
          "internalType": "address",
          "name": "to",
          "type": "address"
        },
        {
          "internalType": "uint256",
          "name": "tokenId",
          "type": "uint256"
        }
      ],
      "name": "safeTransferFrom",
      "outputs": [],
      "stateMutability": "nonpayable",
      "type": "function"
    },
    {
      "inputs": [
        {
          "internalType": "address",
          "name": "from",
          "type": "address"
        },
        {
          "internalType": "address",
          "name": "to",
          "type": "address"
        },
        {
          "internalType": "uint256",
          "name": "tokenId",
          "type": "uint256"
        },
        {
          "internalType": "bytes",
          "name": "data",
          "type": "bytes"
        }
      ],
      "name": "safeTransferFrom",
      "outputs": [],
      "stateMutability": "nonpayable",
      "type": "function"
    },
    {
      "inputs": [
        {
          "internalType": "address",
          "name": "",
          "type": "address"
        },
        {
          "internalType": "bool",
          "name": "",
          "type": "bool"
        }
      ],
      "name": "setApprovalForAll",
      "outputs": [],
      "stateMutability": "nonpayable",
      "type": "function"
    },
    {
      "inputs": [
        {
          "internalType": "address",
          "name": "issuer",
          "type": "address"
        },
        {
          "internalType": "bool",
          "name": "allowed",
          "type": "bool"
        }
      ],
      "name": "setIssuer",
      "outputs": [],
      "stateMutability": "nonpayable",
      "type": "function"
    },
    {
      "inputs": [
        {
          "internalType": "bytes4",
          "name": "interfaceId",
          "type": "bytes4"
        }
      ],
      "name": "supportsInterface",
      "outputs": [
        {
          "internalType": "bool",
          "name": "",
          "type": "bool"
        }
      ],
      "stateMutability": "view",
      "type": "function"
    },
    {
      "inputs": [],
      "name": "symbol",
      "outputs": [
        {
          "internalType": "string",
          "name": "",
          "type": "string"
        }
      ],
      "stateMutability": "view",
      "type": "function"
    },
    {
      "inputs": [
        {
          "internalType": "uint256",
          "name": "",
          "type": "uint256"
        }
      ],
      "name": "tokenCourse",
      "outputs": [
        {
          "internalType": "uint256",
          "name": "",
          "type": "uint256"
        }
      ],
      "stateMutability": "view",
      "type": "function"
    },
    {
      "inputs": [
        {
          "internalType": "uint256",
          "name": "tokenId",
          "type": "uint256"
        }
      ],
      "name": "tokenURI",
      "outputs": [
        {
          "internalType": "string",
          "name": "",
          "type": "string"
        }
      ],
      "stateMutability": "view",
      "type": "function"
    },
    {
      "inputs": [
        {
          "internalType": "address",
          "name": "from",
          "type": "address"
        },
        {
          "internalType": "address",
          "name": "to",
          "type": "address"
        },
        {
          "internalType": "uint256",
          "name": "tokenId",
          "type": "uint256"
        }
      ],
      "name": "transferFrom",
      "outputs": [],
      "stateMutability": "nonpayable",
      "type": "function"
    },
    {
      "inputs": [
        {
          "internalType": "address",
          "name": "newOwner",
          "type": "address"
        }
      ],
      "name": "transferOwnership",
      "outputs": [],
      "stateMutability": "nonpayable",
      "type": "function"
    }
  ],
  "bytecode": "0x60806040523480156200001157600080fd5b506040516200380f3803806200380f833981810160405281019062000037919062000348565b33828281600090816200004b919062000618565b5080600190816200005d919062000618565b505050600073ffffffffffffffffffffffffffffffffffffffff168173ffffffffffffffffffffffffffffffffffffffff1603620000d55760006040517f1e4fbdf7000000000000000000000000000000000000000000000000000000008152600401620000cc919062000744565b60405180910390fd5b620000e681620000ef60201b60201c565b50505062000761565b6000600760009054906101000a900473ffffffffffffffffffffffffffffffffffffffff16905081600760006101000a81548173ffffffffffffffffffffffffffffffffffffffff021916908373ffffffffffffffffffffffffffffffffffffffff1602179055508173ffffffffffffffffffffffffffffffffffffffff168173ffffffffffffffffffffffffffffffffffffffff167f8be0079c531659141344cd1fd0a4f28419497f9722a3daafe3b4186f6b6457e060405160405180910390a35050565b6000604051905090565b600080fd5b600080fd5b600080fd5b600080fd5b6000601f19601f8301169050919050565b7f4e487b7100000000000000000000000000000000000000000000000000000000600052604160045260246000fd5b6200021e82620001d3565b810181811067ffffffffffffffff8211171562000240576200023f620001e4565b5b80604052505050565b600062000255620001b5565b905062000263828262000213565b919050565b600067ffffffffffffffff821115620002865762000285620001e4565b5b6200029182620001d3565b9050602081019050919050565b60005b83811015620002be578082015181840152602081019050620002a1565b60008484015250505050565b6000620002e1620002db8462000268565b62000249565b9050828152602081018484840111156200030057620002ff620001ce565b5b6200030d8482856200029e565b509392505050565b600082601f8301126200032d576200032c620001c9565b5b81516200033f848260208601620002ca565b91505092915050565b60008060408385031215620003625762000361620001bf565b5b600083015167ffffffffffffffff811115620003835762000382620001c4565b5b620003918582860162000315565b925050602083015167ffffffffffffffff811115620003b557620003b4620001c4565b5b620003c38582860162000315565b9150509250929050565b600081519050919050565b7f4e487b7100000000000000000000000000000000000000000000000000000000600052602260045260246000fd5b600060028204905060018216806200042057607f821691505b602082108103620004365762000435620003d8565b5b50919050565b60008190508160005260206000209050919050565b60006020601f8301049050919050565b600082821b905092915050565b600060088302620004a07fffffffffffffffffffffffffffffffffffffffffffffffffffffffffffffffff8262000461565b620004ac868362000461565b95508019841693508086168417925050509392505050565b6000819050919050565b6000819050919050565b6000620004f9620004f3620004ed84620004c4565b620004ce565b620004c4565b9050919050565b6000819050919050565b6200051583620004d8565b6200052d620005248262000500565b8484546200046e565b825550505050565b600090565b6200054462000535565b620005518184846200050a565b505050565b5b8181101562000579576200056d6000826200053a565b60018101905062000557565b5050565b601f821115620005c85762000592816200043c565b6200059d8462000451565b81016020851015620005ad578190505b620005c5620005bc8562000451565b83018262000556565b50505b505050565b600082821c905092915050565b6000620005ed60001984600802620005cd565b1980831691505092915050565b6000620006088383620005da565b9150826002028217905092915050565b6200062382620003cd565b67ffffffffffffffff8111156200063f576200063e620001e4565b5b6200064b825462000407565b620006588282856200057d565b600060209050601f8311600181146200069057600084156200067b578287015190505b620006878582620005fa565b865550620006f7565b601f198416620006a0866200043c565b60005b82811015620006ca57848901518255600182019150602085019450602081019050620006a3565b86831015620006ea5784890151620006e6601f891682620005da565b8355505b6001600288020188555050505b505050505050565b600073ffffffffffffffffffffffffffffffffffffffff82169050919050565b60006200072c82620006ff565b9050919050565b6200073e816200071f565b82525050565b60006020820190506200075b600083018462000733565b92915050565b61309e80620007716000396000f3fe608060405234801561001057600080fd5b50600436106101425760003560e01c8063715018a6116100b8578063b88d4fde1161007c578063b88d4fde14610373578063c87b56dd1461038f578063cb064ddf146103bf578063cdfdaec2146103ef578063e985e9c51461041f578063f2fde38b1461044f57610142565b8063715018a6146102e15780637e93cdf8146102eb5780638da5cb5b1461031b57806395d89b4114610339578063a22cb4651461035757610142565b806338a7543e1161010a57806338a7543e146101fd57806342842e0e1461022d57806342966c6814610249578063495289be146102655780636352211e1461028157806370a08231146102b157610142565b806301ffc9a71461014757806306fdde0314610177578063081812fc14610195578063095ea7b3146101c557806323b872dd146101e1575b600080fd5b610161600480360381019061015c9190612266565b61046b565b60405161016e91906122ae565b60405180910390f35b61017f6104cc565b60405161018c9190612359565b60405180910390f35b6101af60048036038101906101aa91906123b1565b61055e565b6040516101bc919061241f565b60405180910390f35b6101df60048036038101906101da9190612466565b61057a565b005b6101fb60048036038101906101f691906124a6565b6105b5565b005b610217600480360381019061021291906124f9565b6106b7565b60405161022491906122ae565b60405180910390f35b610247600480360381019061024291906124a6565b6106d7565b005b610263600480360381019061025e91906123b1565b6106f7565b005b61027f600480360381019061027a9190612552565b6108a8565b005b61029b600480360381019061029691906123b1565b610959565b6040516102a8919061241f565b60405180910390f35b6102cb60048036038101906102c691906124f9565b61096b565b6040516102d891906125a1565b60405180910390f35b6102e9610a25565b005b610305600480360381019061030091906123b1565b610a39565b60405161031291906125a1565b60405180910390f35b610323610a51565b604051610330919061241f565b60405180910390f35b610341610a7b565b60405161034e9190612359565b60405180910390f35b610371600480360381019061036c9190612552565b610b0d565b005b61038d600480360381019061038891906126f1565b610b48565b005b6103a960048036038101906103a491906123b1565b610b6d565b6040516103b69190612359565b60405180910390f35b6103d960048036038101906103d491906127d4565b610c80565b6040516103e691906125a1565b60405180910390f35b61040960048036038101906104049190612466565b610f20565b60405161041691906125a1565b60405180910390f35b61043960048036038101906104349190612848565b610f45565b60405161044691906122ae565b60405180910390f35b610469600480360381019061046491906124f9565b610fd9565b005b6000634906490660e01b7bffffffffffffffffffffffffffffffffffffffffffffffffffffffff1916827bffffffffffffffffffffffffffffffffffffffffffffffffffffffff191614806104c557506104c48261105f565b5b9050919050565b6060600080546104db906128b7565b80601f0160208091040260200160405190810160405280929190818152602001828054610507906128b7565b80156105545780601f1061052957610100808354040283529160200191610554565b820191906000526020600020905b81548152906001019060200180831161053757829003601f168201915b5050505050905090565b600061056982611141565b50610573826111c9565b9050919050565b6040517f08c379a00000000000000000000000000000000000000000000000000000000081526004016105ac90612934565b60405180910390fd5b600073ffffffffffffffffffffffffffffffffffffffff168273ffffffffffffffffffffffffffffffffffffffff16036106275760006040517f64a0ae9200000000000000000000000000000000000000000000000000000000815260040161061e919061241f565b60405180910390fd5b600061063b8383610636611206565b61120e565b90508373ffffffffffffffffffffffffffffffffffffffff168173ffffffffffffffffffffffffffffffffffffffff16146106b1578382826040517f64283d7b0000000000000000000000000000000000000000000000000000000081526004016106a893929190612954565b60405180910390fd5b50505050565b60096020528060005260406000206000915054906101000a900460ff1681565b6106f283838360405180602001604052806000815250610b48565b505050565b600960003373ffffffffffffffffffffffffffffffffffffffff1673ffffffffffffffffffffffffffffffffffffffff16815260200190815260200160002060009054906101000a900460ff16806107885750610752611206565b73ffffffffffffffffffffffffffffffffffffffff16610770610a51565b73ffffffffffffffffffffffffffffffffffffffff16145b6107c7576040517f08c379a00000000000000000000000000000000000000000000000000000000081526004016107be906129d7565b60405180910390fd5b60006107d282610959565b90506000600a600084815260200190815260200160002054905082600b60008473ffffffffffffffffffffffffffffffffffffffff1673ffffffffffffffffffffffffffffffffffffffff1681526020019081526020016000206000838152602001908152602001600020540361089a576000600b60008473ffffffffffffffffffffffffffffffffffffffff1673ffffffffffffffffffffffffffffffffffffffff1681526020019081526020016000206000838152602001908152602001600020819055505b6108a383611433565b505050565b6108b06114b9565b80600960008473ffffffffffffffffffffffffffffffffffffffff1673ffffffffffffffffffffffffffffffffffffffff16815260200190815260200160002060006101000a81548160ff0219169083151502179055508173ffffffffffffffffffffffffffffffffffffffff167fc6aeabbc4fc4eb208b2b4cec7249245167cb6191c47e2e6f82a3cd59a89ce7e18260405161094d91906122ae565b60405180910390a25050565b600061096482611141565b9050919050565b60008073ffffffffffffffffffffffffffffffffffffffff168273ffffffffffffffffffffffffffffffffffffffff16036109de5760006040517f89c62b640000000000000000000000000000000000000000000000000000000081526004016109d5919061241f565b60405180910390fd5b600360008373ffffffffffffffffffffffffffffffffffffffff1673ffffffffffffffffffffffffffffffffffffffff168152602001908152602001600020549050919050565b610a2d6114b9565b610a376000611540565b565b600a6020528060005260406000206000915090505481565b6000600760009054906101000a900473ffffffffffffffffffffffffffffffffffffffff16905090565b606060018054610a8a906128b7565b80601f0160208091040260200160405190810160405280929190818152602001828054610ab6906128b7565b8015610b035780601f10610ad857610100808354040283529160200191610b03565b820191906000526020600020905b815481529060010190602001808311610ae657829003601f168201915b5050505050905090565b6040517f08c379a0000000000000000000000000000000000000000000000000000000008152600401610b3f90612934565b60405180910390fd5b610b538484846105b5565b610b67610b5e611206565b85858585611606565b50505050565b6060610b7882611141565b506000600660008481526020019081526020016000208054610b99906128b7565b80601f0160208091040260200160405190810160405280929190818152602001828054610bc5906128b7565b8015610c125780601f10610be757610100808354040283529160200191610c12565b820191906000526020600020905b815481529060010190602001808311610bf557829003601f168201915b505050505090506000610c236117b7565b90506000815103610c38578192505050610c7b565b600082511115610c6d578082604051602001610c55929190612a33565b60405160208183030381529060405292505050610c7b565b610c76846117ce565b925050505b919050565b6000600960003373ffffffffffffffffffffffffffffffffffffffff1673ffffffffffffffffffffffffffffffffffffffff16815260200190815260200160002060009054906101000a900460ff1680610d0c5750610cdd610a51565b73ffffffffffffffffffffffffffffffffffffffff163373ffffffffffffffffffffffffffffffffffffffff16145b610d4b576040517f08c379a0000000000000000000000000000000000000000000000000000000008152600401610d4290612aa3565b60405180910390fd5b6000600b60008773ffffffffffffffffffffffffffffffffffffffff1673ffffffffffffffffffffffffffffffffffffffff16815260200190815260200160002060008481526020019081526020016000205414610dde576040517f08c379a0000000000000000000000000000000000000000000000000000000008152600401610dd590612b35565b60405180910390fd5b60086000815480929190610df190612b84565b919050555060006008549050610e078682611837565b610e558186868080601f016020809104026020016040519081016040528093929190818152602001838380828437600081840152601f19601f82011690508083019250505050505050611855565b82600a60008381526020019081526020016000208190555080600b60008873ffffffffffffffffffffffffffffffffffffffff1673ffffffffffffffffffffffffffffffffffffffff16815260200190815260200160002060008581526020019081526020016000208190555082818773ffffffffffffffffffffffffffffffffffffffff167fc54c7ef12eff8d20c7f387ef3dd8fb555d40e92c7faa7a200d3c5a4da6e2a7ed8888604051610f0c929190612bf9565b60405180910390a480915050949350505050565b600b602052816000526040600020602052806000526040600020600091509150505481565b6000600560008473ffffffffffffffffffffffffffffffffffffffff1673ffffffffffffffffffffffffffffffffffffffff16815260200190815260200160002060008373ffffffffffffffffffffffffffffffffffffffff1673ffffffffffffffffffffffffffffffffffffffff16815260200190815260200160002060009054906101000a900460ff16905092915050565b610fe16114b9565b600073ffffffffffffffffffffffffffffffffffffffff168173ffffffffffffffffffffffffffffffffffffffff16036110535760006040517f1e4fbdf700000000000000000000000000000000000000000000000000000000815260040161104a919061241f565b60405180910390fd5b61105c81611540565b50565b60007f80ac58cd000000000000000000000000000000000000000000000000000000007bffffffffffffffffffffffffffffffffffffffffffffffffffffffff1916827bffffffffffffffffffffffffffffffffffffffffffffffffffffffff1916148061112a57507f5b5e139f000000000000000000000000000000000000000000000000000000007bffffffffffffffffffffffffffffffffffffffffffffffffffffffff1916827bffffffffffffffffffffffffffffffffffffffffffffffffffffffff1916145b8061113a5750611139826118b1565b5b9050919050565b60008061114d8361191b565b9050600073ffffffffffffffffffffffffffffffffffffffff168173ffffffffffffffffffffffffffffffffffffffff16036111c057826040517f7e2732890000000000000000000000000000000000000000000000000000000081526004016111b791906125a1565b60405180910390fd5b80915050919050565b60006004600083815260200190815260200160002060009054906101000a900473ffffffffffffffffffffffffffffffffffffffff169050919050565b600033905090565b60008061121a8461191b565b9050600073ffffffffffffffffffffffffffffffffffffffff168173ffffffffffffffffffffffffffffffffffffffff16141580156112865750600073ffffffffffffffffffffffffffffffffffffffff168573ffffffffffffffffffffffffffffffffffffffff1614155b156112c6576040517f08c379a00000000000000000000000000000000000000000000000000000000081526004016112bd90612c8f565b60405180910390fd5b600073ffffffffffffffffffffffffffffffffffffffff168573ffffffffffffffffffffffffffffffffffffffff1614801561132f5750600073ffffffffffffffffffffffffffffffffffffffff168173ffffffffffffffffffffffffffffffffffffffff1614155b1561141e576000600a60008681526020019081526020016000205490506000811461141c576000600a60008781526020019081526020016000208190555084600b60008473ffffffffffffffffffffffffffffffffffffffff1673ffffffffffffffffffffffffffffffffffffffff1681526020019081526020016000206000838152602001908152602001600020540361141b576000600b60008473ffffffffffffffffffffffffffffffffffffffff1673ffffffffffffffffffffffffffffffffffffffff1681526020019081526020016000206000838152602001908152602001600020819055505b5b505b611429858585611958565b9150509392505050565b6000611442600083600061120e565b9050600073ffffffffffffffffffffffffffffffffffffffff168173ffffffffffffffffffffffffffffffffffffffff16036114b557816040517f7e2732890000000000000000000000000000000000000000000000000000000081526004016114ac91906125a1565b60405180910390fd5b5050565b6114c1611206565b73ffffffffffffffffffffffffffffffffffffffff166114df610a51565b73ffffffffffffffffffffffffffffffffffffffff161461153e57611502611206565b6040517f118cdaa7000000000000000000000000000000000000000000000000000000008152600401611535919061241f565b60405180910390fd5b565b6000600760009054906101000a900473ffffffffffffffffffffffffffffffffffffffff16905081600760006101000a81548173ffffffffffffffffffffffffffffffffffffffff021916908373ffffffffffffffffffffffffffffffffffffffff1602179055508173ffffffffffffffffffffffffffffffffffffffff168173ffffffffffffffffffffffffffffffffffffffff167f8be0079c531659141344cd1fd0a4f28419497f9722a3daafe3b4186f6b6457e060405160405180910390a35050565b60008373ffffffffffffffffffffffffffffffffffffffff163b11156117b0578273ffffffffffffffffffffffffffffffffffffffff1663150b7a02868685856040518563ffffffff1660e01b81526004016116659493929190612d04565b6020604051808303816000875af19250505080156116a157506040513d601f19601f8201168201806040525081019061169e9190612d65565b60015b611725573d80600081146116d1576040519150601f19603f3d011682016040523d82523d6000602084013e6116d6565b606091505b50600081510361171d57836040517f64a0ae92000000000000000000000000000000000000000000000000000000008152600401611714919061241f565b60405180910390fd5b805160208201fd5b63150b7a0260e01b7bffffffffffffffffffffffffffffffffffffffffffffffffffffffff1916817bffffffffffffffffffffffffffffffffffffffffffffffffffffffff1916146117ae57836040517f64a0ae920000000000000000000000000000000000000000000000000000000081526004016117a5919061241f565b60405180910390fd5b505b5050505050565b606060405180602001604052806000815250905090565b60606117d982611141565b5060006117e46117b7565b90506000815111611804576040518060200160405280600081525061182f565b8061180e84611b72565b60405160200161181f929190612a33565b6040516020818303038152906040525b915050919050565b611851828260405180602001604052806000815250611c40565b5050565b806006600084815260200190815260200160002090816118759190612f3e565b507ff8e1a15aba9398e019f0b49df1a4fde98ee17ae345cb5f6b5e2c27f5033e8ce7826040516118a591906125a1565b60405180910390a15050565b60007f01ffc9a7000000000000000000000000000000000000000000000000000000007bffffffffffffffffffffffffffffffffffffffffffffffffffffffff1916827bffffffffffffffffffffffffffffffffffffffffffffffffffffffff1916149050919050565b60006002600083815260200190815260200160002060009054906101000a900473ffffffffffffffffffffffffffffffffffffffff169050919050565b6000806119648461191b565b9050600073ffffffffffffffffffffffffffffffffffffffff168373ffffffffffffffffffffffffffffffffffffffff16146119a6576119a5818486611c64565b5b600073ffffffffffffffffffffffffffffffffffffffff168173ffffffffffffffffffffffffffffffffffffffff1614611a37576119e8600085600080611d28565b6001600360008373ffffffffffffffffffffffffffffffffffffffff1673ffffffffffffffffffffffffffffffffffffffff168152602001908152602001600020600082825403925050819055505b600073ffffffffffffffffffffffffffffffffffffffff168573ffffffffffffffffffffffffffffffffffffffff1614611aba576001600360008773ffffffffffffffffffffffffffffffffffffffff1673ffffffffffffffffffffffffffffffffffffffff168152602001908152602001600020600082825401925050819055505b846002600086815260200190815260200160002060006101000a81548173ffffffffffffffffffffffffffffffffffffffff021916908373ffffffffffffffffffffffffffffffffffffffff160217905550838573ffffffffffffffffffffffffffffffffffffffff168273ffffffffffffffffffffffffffffffffffffffff167fddf252ad1be2c89b69c2b068fc378daa952ba7f163c4a11628f55a4df523b3ef60405160405180910390a4809150509392505050565b606060006001611b8184611eed565b01905060008167ffffffffffffffff811115611ba057611b9f6125c6565b5b6040519080825280601f01601f191660200182016040528015611bd25781602001600182028036833780820191505090505b509050600082602083010190505b600115611c35578080600190039150507f3031323334353637383961626364656600000000000000000000000000000000600a86061a8153600a8581611c2957611c28613010565b5b04945060008503611be0575b819350505050919050565b611c4a8383612040565b611c5f611c55611206565b6000858585611606565b505050565b611c6f838383612139565b611d2357600073ffffffffffffffffffffffffffffffffffffffff168373ffffffffffffffffffffffffffffffffffffffff1603611ce457806040517f7e273289000000000000000000000000000000000000000000000000000000008152600401611cdb91906125a1565b60405180910390fd5b81816040517f177e802f000000000000000000000000000000000000000000000000000000008152600401611d1a92919061303f565b60405180910390fd5b505050565b8080611d615750600073ffffffffffffffffffffffffffffffffffffffff168273ffffffffffffffffffffffffffffffffffffffff1614155b15611e95576000611d7184611141565b9050600073ffffffffffffffffffffffffffffffffffffffff168373ffffffffffffffffffffffffffffffffffffffff1614158015611ddc57508273ffffffffffffffffffffffffffffffffffffffff168173ffffffffffffffffffffffffffffffffffffffff1614155b8015611def5750611ded8184610f45565b155b15611e3157826040517fa9fbf51f000000000000000000000000000000000000000000000000000000008152600401611e28919061241f565b60405180910390fd5b8115611e9357838573ffffffffffffffffffffffffffffffffffffffff168273ffffffffffffffffffffffffffffffffffffffff167f8c5be1e5ebec7d5bd14f71427d1e84f3dd0314c0f7b2291e5b200ac8c7c3b92560405160405180910390a45b505b836004600085815260200190815260200160002060006101000a81548173ffffffffffffffffffffffffffffffffffffffff021916908373ffffffffffffffffffffffffffffffffffffffff16021790555050505050565b600080600090507a184f03e93ff9f4daa797ed6e38ed64bf6a1f0100000000000000008310611f4b577a184f03e93ff9f4daa797ed6e38ed64bf6a1f0100000000000000008381611f4157611f40613010565b5b0492506040810190505b6d04ee2d6d415b85acef81000000008310611f88576d04ee2d6d415b85acef81000000008381611f7e57611f7d613010565b5b0492506020810190505b662386f26fc100008310611fb757662386f26fc100008381611fad57611fac613010565b5b0492506010810190505b6305f5e1008310611fe0576305f5e1008381611fd657611fd5613010565b5b0492506008810190505b6127108310612005576127108381611ffb57611ffa613010565b5b0492506004810190505b60648310612028576064838161201e5761201d613010565b5b0492506002810190505b600a8310612037576001810190505b80915050919050565b600073ffffffffffffffffffffffffffffffffffffffff168273ffffffffffffffffffffffffffffffffffffffff16036120b25760006040517f64a0ae920000000000000000000000000000000000000000000000000000000081526004016120a9919061241f565b60405180910390fd5b60006120c08383600061120e565b9050600073ffffffffffffffffffffffffffffffffffffffff168173ffffffffffffffffffffffffffffffffffffffff16146121345760006040517f73c6ac6e00000000000000000000000000000000000000000000000000000000815260040161212b919061241f565b60405180910390fd5b505050565b60008073ffffffffffffffffffffffffffffffffffffffff168373ffffffffffffffffffffffffffffffffffffffff16141580156121f157508273ffffffffffffffffffffffffffffffffffffffff168473ffffffffffffffffffffffffffffffffffffffff1614806121b257506121b18484610f45565b5b806121f057508273ffffffffffffffffffffffffffffffffffffffff166121d8836111c9565b73ffffffffffffffffffffffffffffffffffffffff16145b5b90509392505050565b6000604051905090565b600080fd5b600080fd5b60007fffffffff0000000000000000000000000000000000000000000000000000000082169050919050565b6122438161220e565b811461224e57600080fd5b50565b6000813590506122608161223a565b92915050565b60006020828403121561227c5761227b612204565b5b600061228a84828501612251565b91505092915050565b60008115159050919050565b6122a881612293565b82525050565b60006020820190506122c3600083018461229f565b92915050565b600081519050919050565b600082825260208201905092915050565b60005b838110156123035780820151818401526020810190506122e8565b60008484015250505050565b6000601f19601f8301169050919050565b600061232b826122c9565b61233581856122d4565b93506123458185602086016122e5565b61234e8161230f565b840191505092915050565b600060208201905081810360008301526123738184612320565b905092915050565b6000819050919050565b61238e8161237b565b811461239957600080fd5b50565b6000813590506123ab81612385565b92915050565b6000602082840312156123c7576123c6612204565b5b60006123d58482850161239c565b91505092915050565b600073ffffffffffffffffffffffffffffffffffffffff82169050919050565b6000612409826123de565b9050919050565b612419816123fe565b82525050565b60006020820190506124346000830184612410565b92915050565b612443816123fe565b811461244e57600080fd5b50565b6000813590506124608161243a565b92915050565b6000806040838503121561247d5761247c612204565b5b600061248b85828601612451565b925050602061249c8582860161239c565b9150509250929050565b6000806000606084860312156124bf576124be612204565b5b60006124cd86828701612451565b93505060206124de86828701612451565b92505060406124ef8682870161239c565b9150509250925092565b60006020828403121561250f5761250e612204565b5b600061251d84828501612451565b91505092915050565b61252f81612293565b811461253a57600080fd5b50565b60008135905061254c81612526565b92915050565b6000806040838503121561256957612568612204565b5b600061257785828601612451565b92505060206125888582860161253d565b9150509250929050565b61259b8161237b565b82525050565b60006020820190506125b66000830184612592565b92915050565b600080fd5b600080fd5b7f4e487b7100000000000000000000000000000000000000000000000000000000600052604160045260246000fd5b6125fe8261230f565b810181811067ffffffffffffffff8211171561261d5761261c6125c6565b5b80604052505050565b60006126306121fa565b905061263c82826125f5565b919050565b600067ffffffffffffffff82111561265c5761265b6125c6565b5b6126658261230f565b9050602081019050919050565b82818337600083830152505050565b600061269461268f84612641565b612626565b9050828152602081018484840111156126b0576126af6125c1565b5b6126bb848285612672565b509392505050565b600082601f8301126126d8576126d76125bc565b5b81356126e8848260208601612681565b91505092915050565b6000806000806080858703121561270b5761270a612204565b5b600061271987828801612451565b945050602061272a87828801612451565b935050604061273b8782880161239c565b925050606085013567ffffffffffffffff81111561275c5761275b612209565b5b612768878288016126c3565b91505092959194509250565b600080fd5b600080fd5b60008083601f840112612794576127936125bc565b5b8235905067ffffffffffffffff8111156127b1576127b0612774565b5b6020830191508360018202830111156127cd576127cc612779565b5b9250929050565b600080600080606085870312156127ee576127ed612204565b5b60006127fc87828801612451565b945050602085013567ffffffffffffffff81111561281d5761281c612209565b5b6128298782880161277e565b9350935050604061283c8782880161239c565b91505092959194509250565b6000806040838503121561285f5761285e612204565b5b600061286d85828601612451565b925050602061287e85828601612451565b9150509250929050565b7f4e487b7100000000000000000000000000000000000000000000000000000000600052602260045260246000fd5b600060028204905060018216806128cf57607f821691505b6020821081036128e2576128e1612888565b5b50919050565b7f4365727469666963617465732061726520736f756c626f756e64000000000000600082015250565b600061291e601a836122d4565b9150612929826128e8565b602082019050919050565b6000602082019050818103600083015261294d81612911565b9050919050565b60006060820190506129696000830186612410565b6129766020830185612592565b6129836040830184612410565b949350505050565b7f4e6f7420617574686f72697a656420746f206275726e00000000000000000000600082015250565b60006129c16016836122d4565b91506129cc8261298b565b602082019050919050565b600060208201905081810360008301526129f0816129b4565b9050919050565b600081905092915050565b6000612a0d826122c9565b612a1781856129f7565b9350612a278185602086016122e5565b80840191505092915050565b6000612a3f8285612a02565b9150612a4b8284612a02565b91508190509392505050565b7f4e6f7420617574686f72697a656420746f206d696e7400000000000000000000600082015250565b6000612a8d6016836122d4565b9150612a9882612a57565b602082019050919050565b60006020820190508181036000830152612abc81612a80565b9050919050565b7f436572746966696361746520616c72656164792069737375656420666f72207460008201527f68697320636f7572736500000000000000000000000000000000000000000000602082015250565b6000612b1f602a836122d4565b9150612b2a82612ac3565b604082019050919050565b60006020820190508181036000830152612b4e81612b12565b9050919050565b7f4e487b7100000000000000000000000000000000000000000000000000000000600052601160045260246000fd5b6000612b8f8261237b565b91507fffffffffffffffffffffffffffffffffffffffffffffffffffffffffffffffff8203612bc157612bc0612b55565b5b600182019050919050565b6000612bd883856122d4565b9350612be5838584612672565b612bee8361230f565b840190509392505050565b60006020820190508181036000830152612c14818486612bcc565b90509392505050565b7f43657274696669636174657320617265206e6f6e2d7472616e7366657261626c60008201527f6500000000000000000000000000000000000000000000000000000000000000602082015250565b6000612c796021836122d4565b9150612c8482612c1d565b604082019050919050565b60006020820190508181036000830152612ca881612c6c565b9050919050565b600081519050919050565b600082825260208201905092915050565b6000612cd682612caf565b612ce08185612cba565b9350612cf08185602086016122e5565b612cf98161230f565b840191505092915050565b6000608082019050612d196000830187612410565b612d266020830186612410565b612d336040830185612592565b8181036060830152612d458184612ccb565b905095945050505050565b600081519050612d5f8161223a565b92915050565b600060208284031215612d7b57612d7a612204565b5b6000612d8984828501612d50565b91505092915050565b60008190508160005260206000209050919050565b60006020601f8301049050919050565b600082821b905092915050565b600060088302612df47fffffffffffffffffffffffffffffffffffffffffffffffffffffffffffffffff82612db7565b612dfe8683612db7565b95508019841693508086168417925050509392505050565b6000819050919050565b6000612e3b612e36612e318461237b565b612e16565b61237b565b9050919050565b6000819050919050565b612e5583612e20565b612e69612e6182612e42565b848454612dc4565b825550505050565b600090565b612e7e612e71565b612e89818484612e4c565b505050565b5b81811015612ead57612ea2600082612e76565b600181019050612e8f565b5050565b601f821115612ef257612ec381612d92565b612ecc84612da7565b81016020851015612edb578190505b612eef612ee785612da7565b830182612e8e565b50505b505050565b600082821c905092915050565b6000612f1560001984600802612ef7565b1980831691505092915050565b6000612f2e8383612f04565b9150826002028217905092915050565b612f47826122c9565b67ffffffffffffffff811115612f6057612f5f6125c6565b5b612f6a82546128b7565b612f75828285612eb1565b600060209050601f831160018114612fa85760008415612f96578287015190505b612fa08582612f22565b865550613008565b601f198416612fb686612d92565b60005b82811015612fde57848901518255600182019150602085019450602081019050612fb9565b86831015612ffb5784890151612ff7601f891682612f04565b8355505b6001600288020188555050505b505050505050565b7f4e487b7100000000000000000000000000000000000000000000000000000000600052601260045260246000fd5b60006040820190506130546000830185612410565b6130616020830184612592565b939250505056fea26469706673582212209d15534154b6130bd705edd5636a312263c960aebeaa22c60617d97e8d4b58b864736f6c63430008140033",
  "linkReferences": {},
  "deployedLinkReferences": {}
}