{
  "_format": "hh-sol-artifact-1",
  "contractName": "CourseMarketplace",
  "sourceName": "contracts/CourseMarketplace.sol",
  "abi": [
    {
      "inputs": [
        {
          "internalType": "address",
          "name": "_certContract",
          "type": "address"
        },
        {
          "internalType": "address",
          "name": "_treasury",
          "type": "address"
        }
      ],
      "stateMutability": "nonpayable",
      "type": "constructor"
    },
    {
      "inputs": [
        {
          "internalType": "address",
          "name": "owner",
          "type": "address"
        }
      ],
      "name": "OwnableInvalidOwner",
      "type": "error"
    },
    {
      "inputs": [
        {
          "internalType": "address",
          "name": "account",
          "type": "address"
        }
      ],
      "name": "OwnableUnauthorizedAccount",
      "type": "error"
    },
    {
      "inputs": [],
      "name": "ReentrancyGuardReentrantCall",
      "type": "error"
    },
    {
      "anonymous": false,
      "inputs": [
        {
          "indexed": true,
          "internalType": "address",
          "name": "to",
          "type": "address"
        },
        {
          "indexed": true,
          "internalType": "uint256",
          "name": "tokenId",
          "type": "uint256"
        },
        {
          "indexed": true,
          "internalType": "uint256",
          "name": "courseId",
          "type": "uint256"
        }
      ],
      "name": "CertificateIssued",
      "type": "event"
    },
    {
      "anonymous": false,
      "inputs": [
        {
          "indexed": true,
          "internalType": "uint256",
          "name": "courseId",
          "type": "uint256"
        },
        {
          "indexed": false,
          "internalType": "uint256",
          "name": "price",
          "type": "uint256"
        },
        {
          "indexed": true,
          "internalType": "address",
          "name": "creator",
          "type": "address"
        }
      ],
      "name": "CourseAdded",
      "type": "event"
    },
    {
      "anonymous": false,
      "inputs": [
        {
          "indexed": true,
          "internalType": "address",
          "name": "buyer",
          "type": "address"
        },
        {
          "indexed": true,
          "internalType": "uint256",
          "name": "courseId",
          "type": "uint256"
        },
        {
          "indexed": false,
          "internalType": "uint256",
          "name": "amount",
          "type": "uint256"
        }
      ],
      "name": "CoursePurchased",
      "type": "event"
    },
    {
      "anonymous": false,
      "inputs": [
        {
          "indexed": true,
          "internalType": "uint256",
          "name": "courseId",
          "type": "uint256"
        },
        {
          "indexed": false,
          "internalType": "uint256",
          "name": "price",
          "type": "uint256"
        },
        {
          "indexed": false,
          "internalType": "bool",
          "name": "active",
          "type": "bool"
        }
      ],
      "name": "CourseUpdated",
      "type": "event"
    },
    {
      "anonymous": false,
      "inputs": [
        {
          "indexed": true,
          "internalType": "address",
          "name": "previousOwner",
          "type": "address"
        },
        {
          "indexed": true,
          "internalType": "address",
          "name": "newOwner",
          "type": "address"
        }
      ],
      "name": "OwnershipTransferred",
      "type": "event"
    },
    {
      "inputs": [
        {
          "internalType": "uint256",
          "name": "courseId",
          "type": "uint256"
        },
        {
          "internalType": "uint256",
          "name": "price",
          "type": "uint256"
        },
        {
          "internalType": "address",
          "name": "creator",
          "type": "address"
        }
      ],
      "name": "addCourse",
      "outputs": [],
      "stateMutability": "nonpayable",
      "type": "function"
    },
    {
      "inputs": [],
      "name": "certContract",
      "outputs": [
        {
          "internalType": "contract ICertificateNFT",
          "name": "",
          "type": "address"
        }
      ],
      "stateMutability": "view",
      "type": "function"
    },
    {
      "inputs": [
        {
          "internalType": "uint256",
          "name": "",
          "type": "uint256"
        }
      ],
      "name": "courses",
      "outputs": [
        {
          "internalType": "uint256",
          "name": "id",
          "type": "uint256"
        },
        {
          "internalType": "uint256",
          "name": "price",
          "type": "uint256"
        },
        {
          "internalType": "bool",
          "name": "active",
          "type": "bool"
        },
        {
          "internalType": "address",
          "name": "creator",
          "type": "address"
        }
      ],
      "stateMutability": "view",
      "type": "function"
    },
    {
      "inputs": [
        {
          "internalType": "address",
          "name": "to",
          "type": "address"
        },
        {
          "internalType": "uint256",
          "name": "courseId",
          "type": "uint256"
        },
        {
          "internalType": "string",
          "name": "tokenURI",
          "type": "string"
        }
      ],
      "name": "issueCertificate",
      "outputs": [
        {
          "internalType": "uint256",
          "name": "",
          "type": "uint256"
        }
      ],
      "stateMutability": "nonpayable",
      "type": "function"
    },
    {
      "inputs": [],
      "name": "owner",
      "outputs": [
        {
          "internalType": "address",
          "name": "",
          "type": "address"
        }
      ],
      "stateMutability": "view",
      "type": "function"
    },
    {
      "inputs": [
        {
          "internalType": "uint256",
          "name": "courseId",
          "type": "uint256"
        }
      ],
      "name": "purchaseCourse",
      "outputs": [],
      "stateMutability": "payable",
      "type": "function"
    },
    {
      "inputs": [
        {
          "internalType": "address",
          "name": "",
          "type": "address"
        },
        {
          "internalType": "uint256",
          "name": "",
          "type": "uint256"
        }
      ],
      "name": "purchased",
      "outputs": [
        {
          "internalType": "bool",
          "name": "",
          "type": "bool"
        }
      ],
      "stateMutability": "view",
      "type": "function"
    },
    {
      "inputs": [],
      "name": "renounceOwnership",
      "outputs": [],
      "stateMutability": "nonpayable",
      "type": "function"
    },
    {
      "inputs": [
        {
          "internalType": "address",
          "name": "_certContract",
          "type": "address"
        }
      ],
      "name": "setCertificateContract",
      "outputs": [],
      "stateMutability": "nonpayable",
      "type": "function"
    },
    {
      "inputs": [
        {
          "internalType": "address",
          "name": "_treasury",
          "type": "address"
        }
      ],
      "name": "setTreasury",
      "outputs": [],
      "stateMutability": "nonpayable",
      "type": "function"
    },
    {
      "inputs": [
        {
          "internalType": "address",
          "name": "newOwner",
          "type": "address"
        }
      ],
      "name": "transferOwnership",
      "outputs": [],
      "stateMutability": "nonpayable",
      "type": "function"
    },
    {
      "inputs": [],
      "name": "treasury",
      "outputs": [
        {
          "internalType": "address",
          "name": "",
          "type": "address"
        }
      ],
      "stateMutability": "view",
      "type": "function"
    },
    {
      "inputs": [
        {
          "internalType": "uint256",
          "name": "courseId",
          "type": "uint256"
        },
        {
          "internalType": "uint256",
          "name": "price",
          "type": "uint256"
        },
        {
          "internalType": "bool",
          "name": "active",
          "type": "bool"
        }
      ],
      "name": "updateCourse",
      "outputs": [],
      "stateMutability": "nonpayable",
      "type": "function"
    },
    {
      "inputs": [
        {
          "internalType": "address",
          "name": "to",
          "type": "address"
        },
        {
          "internalType": "uint256",
          "name": "amount",
          "type": "uint256"
        }
      ],
      "name": "withdraw",
      "outputs": [],
      "stateMutability": "nonpayable",
      "type": "function"
    }
  ],
  "bytecode": "0x60806040523480156200001157600080fd5b5060405162001fe138038062001fe1833981810160405281019062000037919062000365565b33600073ffffffffffffffffffffffffffffffffffffffff168173ffffffffffffffffffffffffffffffffffffffff1603620000ad5760006040517f1e4fbdf7000000000000000000000000000000000000000000000000000000008152600401620000a49190620003bd565b60405180910390fd5b620000be816200020e60201b60201c565b5060018081905550600073ffffffffffffffffffffffffffffffffffffffff168273ffffffffffffffffffffffffffffffffffffffff160362000138576040517f08c379a00000000000000000000000000000000000000000000000000000000081526004016200012f906200043b565b60405180910390fd5b81600560006101000a81548173ffffffffffffffffffffffffffffffffffffffff021916908373ffffffffffffffffffffffffffffffffffffffff160217905550600073ffffffffffffffffffffffffffffffffffffffff168173ffffffffffffffffffffffffffffffffffffffff1614620001b55780620001c6565b620001c5620002d260201b60201c565b5b600460006101000a81548173ffffffffffffffffffffffffffffffffffffffff021916908373ffffffffffffffffffffffffffffffffffffffff16021790555050506200045d565b60008060009054906101000a900473ffffffffffffffffffffffffffffffffffffffff169050816000806101000a81548173ffffffffffffffffffffffffffffffffffffffff021916908373ffffffffffffffffffffffffffffffffffffffff1602179055508173ffffffffffffffffffffffffffffffffffffffff168173ffffffffffffffffffffffffffffffffffffffff167f8be0079c531659141344cd1fd0a4f28419497f9722a3daafe3b4186f6b6457e060405160405180910390a35050565b60008060009054906101000a900473ffffffffffffffffffffffffffffffffffffffff16905090565b600080fd5b600073ffffffffffffffffffffffffffffffffffffffff82169050919050565b60006200032d8262000300565b9050919050565b6200033f8162000320565b81146200034b57600080fd5b50565b6000815190506200035f8162000334565b92915050565b600080604083850312156200037f576200037e620002fb565b5b60006200038f858286016200034e565b9250506020620003a2858286016200034e565b9150509250929050565b620003b78162000320565b82525050565b6000602082019050620003d46000830184620003ac565b92915050565b600082825260208201905092915050565b7f496e76616c6964206365727420636f6e74726163740000000000000000000000600082015250565b600062000423601583620003da565b91506200043082620003eb565b602082019050919050565b60006020820190508181036000830152620004568162000414565b9050919050565b611b74806200046d6000396000f3fe6080604052600436106100dd5760003560e01c806396f979d21161007f578063e597ef1211610059578063e597ef121461028e578063f0f44260146102cb578063f2fde38b146102f4578063f3fef3a31461031d576100dd565b806396f979d2146102095780639e0d723214610249578063cd13193814610272576100dd565b806361d027b3116100bb57806361d027b31461017157806362bf03f11461019c578063715018a6146101c75780638da5cb5b146101de576100dd565b806308ed65c8146100e25780630ce51f561461010b5780635186240114610148575b600080fd5b3480156100ee57600080fd5b5061010960048036038101906101049190611197565b610346565b005b34801561011757600080fd5b50610132600480360381019061012d91906112ad565b6103ca565b60405161013f9190611330565b60405180910390f35b34801561015457600080fd5b5061016f600480360381019061016a919061134b565b61063f565b005b34801561017d57600080fd5b506101866106fa565b6040516101939190611387565b60405180910390f35b3480156101a857600080fd5b506101b1610720565b6040516101be9190611401565b60405180910390f35b3480156101d357600080fd5b506101dc610746565b005b3480156101ea57600080fd5b506101f361075a565b6040516102009190611387565b60405180910390f35b34801561021557600080fd5b50610230600480360381019061022b919061141c565b610783565b6040516102409493929190611458565b60405180910390f35b34801561025557600080fd5b50610270600480360381019061026b919061149d565b6107e0565b005b61028c6004803603810190610287919061141c565b610907565b005b34801561029a57600080fd5b506102b560048036038101906102b091906114f0565b610ce5565b6040516102c29190611530565b60405180910390f35b3480156102d757600080fd5b506102f260048036038101906102ed919061134b565b610d14565b005b34801561030057600080fd5b5061031b6004803603810190610316919061134b565b610dcf565b005b34801561032957600080fd5b50610344600480360381019061033f91906114f0565b610e55565b005b61034e610f7d565b6000600260008581526020019081526020016000209050828160010181905550818160020160006101000a81548160ff021916908315150217905550837f5120680c86668cac898dab69a03b0ee7262d0d93799edb4e0c9ca52e001e436884846040516103bc92919061154b565b60405180910390a250505050565b60006103d4611004565b6103dc61075a565b73ffffffffffffffffffffffffffffffffffffffff163373ffffffffffffffffffffffffffffffffffffffff1614806104625750600460009054906101000a900473ffffffffffffffffffffffffffffffffffffffff1673ffffffffffffffffffffffffffffffffffffffff163373ffffffffffffffffffffffffffffffffffffffff16145b6104a1576040517f08c379a0000000000000000000000000000000000000000000000000000000008152600401610498906115d1565b60405180910390fd5b600360008673ffffffffffffffffffffffffffffffffffffffff1673ffffffffffffffffffffffffffffffffffffffff168152602001908152602001600020600085815260200190815260200160002060009054906101000a900460ff1661053e576040517f08c379a00000000000000000000000000000000000000000000000000000000081526004016105359061163d565b60405180910390fd5b6000600560009054906101000a900473ffffffffffffffffffffffffffffffffffffffff1673ffffffffffffffffffffffffffffffffffffffff1663cb064ddf878686896040518563ffffffff1660e01b81526004016105a194939291906116aa565b6020604051808303816000875af11580156105c0573d6000803e3d6000fd5b505050506040513d601f19601f820116820180604052508101906105e491906116ff565b905084818773ffffffffffffffffffffffffffffffffffffffff167f65db4d653a1dec19354793622d6b806e92c72ac3f02709ab594eaf33c3a9686660405160405180910390a48091505061063761104a565b949350505050565b610647610f7d565b600073ffffffffffffffffffffffffffffffffffffffff168173ffffffffffffffffffffffffffffffffffffffff16036106b6576040517f08c379a00000000000000000000000000000000000000000000000000000000081526004016106ad90611778565b60405180910390fd5b80600560006101000a81548173ffffffffffffffffffffffffffffffffffffffff021916908373ffffffffffffffffffffffffffffffffffffffff16021790555050565b600460009054906101000a900473ffffffffffffffffffffffffffffffffffffffff1681565b600560009054906101000a900473ffffffffffffffffffffffffffffffffffffffff1681565b61074e610f7d565b6107586000611053565b565b60008060009054906101000a900473ffffffffffffffffffffffffffffffffffffffff16905090565b60026020528060005260406000206000915090508060000154908060010154908060020160009054906101000a900460ff16908060020160019054906101000a900473ffffffffffffffffffffffffffffffffffffffff16905084565b6107e8610f7d565b60405180608001604052808481526020018381526020016001151581526020018273ffffffffffffffffffffffffffffffffffffffff1681525060026000858152602001908152602001600020600082015181600001556020820151816001015560408201518160020160006101000a81548160ff02191690831515021790555060608201518160020160016101000a81548173ffffffffffffffffffffffffffffffffffffffff021916908373ffffffffffffffffffffffffffffffffffffffff1602179055509050508073ffffffffffffffffffffffffffffffffffffffff16837fb342486ee6a950fe08c8c44031178e0aee1851dc89a0c25d423aefec0a380f2b846040516108fa9190611330565b60405180910390a3505050565b61090f611004565b60006002600083815260200190815260200160002060405180608001604052908160008201548152602001600182015481526020016002820160009054906101000a900460ff161515151581526020016002820160019054906101000a900473ffffffffffffffffffffffffffffffffffffffff1673ffffffffffffffffffffffffffffffffffffffff1673ffffffffffffffffffffffffffffffffffffffff16815250509050600073ffffffffffffffffffffffffffffffffffffffff16816060015173ffffffffffffffffffffffffffffffffffffffff1603610a29576040517f08c379a0000000000000000000000000000000000000000000000000000000008152600401610a20906117e4565b60405180910390fd5b8060400151610a6d576040517f08c379a0000000000000000000000000000000000000000000000000000000008152600401610a6490611850565b60405180910390fd5b8060200151341015610ab4576040517f08c379a0000000000000000000000000000000000000000000000000000000008152600401610aab906118bc565b60405180910390fd5b600360003373ffffffffffffffffffffffffffffffffffffffff1673ffffffffffffffffffffffffffffffffffffffff168152602001908152602001600020600083815260200190815260200160002060009054906101000a900460ff1615610b52576040517f08c379a0000000000000000000000000000000000000000000000000000000008152600401610b4990611928565b60405180910390fd5b6001600360003373ffffffffffffffffffffffffffffffffffffffff1673ffffffffffffffffffffffffffffffffffffffff168152602001908152602001600020600084815260200190815260200160002060006101000a81548160ff0219169083151502179055506000600460009054906101000a900473ffffffffffffffffffffffffffffffffffffffff1673ffffffffffffffffffffffffffffffffffffffff1634604051610c0390611979565b60006040518083038185875af1925050503d8060008114610c40576040519150601f19603f3d011682016040523d82523d6000602084013e610c45565b606091505b5050905080610c89576040517f08c379a0000000000000000000000000000000000000000000000000000000008152600401610c80906119da565b60405180910390fd5b823373ffffffffffffffffffffffffffffffffffffffff167f4b71ef6d807a9a201a6f28d104a403722af74f85b8f2042a8d152bd2a78f558634604051610cd09190611330565b60405180910390a35050610ce261104a565b50565b60036020528160005260406000206020528060005260406000206000915091509054906101000a900460ff1681565b610d1c610f7d565b600073ffffffffffffffffffffffffffffffffffffffff168173ffffffffffffffffffffffffffffffffffffffff1603610d8b576040517f08c379a0000000000000000000000000000000000000000000000000000000008152600401610d8290611a46565b60405180910390fd5b80600460006101000a81548173ffffffffffffffffffffffffffffffffffffffff021916908373ffffffffffffffffffffffffffffffffffffffff16021790555050565b610dd7610f7d565b600073ffffffffffffffffffffffffffffffffffffffff168173ffffffffffffffffffffffffffffffffffffffff1603610e495760006040517f1e4fbdf7000000000000000000000000000000000000000000000000000000008152600401610e409190611387565b60405180910390fd5b610e5281611053565b50565b610e5d610f7d565b600073ffffffffffffffffffffffffffffffffffffffff168273ffffffffffffffffffffffffffffffffffffffff1603610ecc576040517f08c379a0000000000000000000000000000000000000000000000000000000008152600401610ec390611ab2565b60405180910390fd5b60008273ffffffffffffffffffffffffffffffffffffffff1682604051610ef290611979565b60006040518083038185875af1925050503d8060008114610f2f576040519150601f19603f3d011682016040523d82523d6000602084013e610f34565b606091505b5050905080610f78576040517f08c379a0000000000000000000000000000000000000000000000000000000008152600401610f6f90611b1e565b60405180910390fd5b505050565b610f85611117565b73ffffffffffffffffffffffffffffffffffffffff16610fa361075a565b73ffffffffffffffffffffffffffffffffffffffff161461100257610fc6611117565b6040517f118cdaa7000000000000000000000000000000000000000000000000000000008152600401610ff99190611387565b60405180910390fd5b565b600260015403611040576040517f3ee5aeb500000000000000000000000000000000000000000000000000000000815260040160405180910390fd5b6002600181905550565b60018081905550565b60008060009054906101000a900473ffffffffffffffffffffffffffffffffffffffff169050816000806101000a81548173ffffffffffffffffffffffffffffffffffffffff021916908373ffffffffffffffffffffffffffffffffffffffff1602179055508173ffffffffffffffffffffffffffffffffffffffff168173ffffffffffffffffffffffffffffffffffffffff167f8be0079c531659141344cd1fd0a4f28419497f9722a3daafe3b4186f6b6457e060405160405180910390a35050565b600033905090565b600080fd5b600080fd5b6000819050919050565b61113c81611129565b811461114757600080fd5b50565b60008135905061115981611133565b92915050565b60008115159050919050565b6111748161115f565b811461117f57600080fd5b50565b6000813590506111918161116b565b92915050565b6000806000606084860312156111b0576111af61111f565b5b60006111be8682870161114a565b93505060206111cf8682870161114a565b92505060406111e086828701611182565b9150509250925092565b600073ffffffffffffffffffffffffffffffffffffffff82169050919050565b6000611215826111ea565b9050919050565b6112258161120a565b811461123057600080fd5b50565b6000813590506112428161121c565b92915050565b600080fd5b600080fd5b600080fd5b60008083601f84011261126d5761126c611248565b5b8235905067ffffffffffffffff81111561128a5761128961124d565b5b6020830191508360018202830111156112a6576112a5611252565b5b9250929050565b600080600080606085870312156112c7576112c661111f565b5b60006112d587828801611233565b94505060206112e68782880161114a565b935050604085013567ffffffffffffffff81111561130757611306611124565b5b61131387828801611257565b925092505092959194509250565b61132a81611129565b82525050565b60006020820190506113456000830184611321565b92915050565b6000602082840312156113615761136061111f565b5b600061136f84828501611233565b91505092915050565b6113818161120a565b82525050565b600060208201905061139c6000830184611378565b92915050565b6000819050919050565b60006113c76113c26113bd846111ea565b6113a2565b6111ea565b9050919050565b60006113d9826113ac565b9050919050565b60006113eb826113ce565b9050919050565b6113fb816113e0565b82525050565b600060208201905061141660008301846113f2565b92915050565b6000602082840312156114325761143161111f565b5b60006114408482850161114a565b91505092915050565b6114528161115f565b82525050565b600060808201905061146d6000830187611321565b61147a6020830186611321565b6114876040830185611449565b6114946060830184611378565b95945050505050565b6000806000606084860312156114b6576114b561111f565b5b60006114c48682870161114a565b93505060206114d58682870161114a565b92505060406114e686828701611233565b9150509250925092565b600080604083850312156115075761150661111f565b5b600061151585828601611233565b92505060206115268582860161114a565b9150509250929050565b60006020820190506115456000830184611449565b92915050565b60006040820190506115606000830185611321565b61156d6020830184611449565b9392505050565b600082825260208201905092915050565b7f4e6f7420616c6c6f77656420746f206973737565000000000000000000000000600082015250565b60006115bb601483611574565b91506115c682611585565b602082019050919050565b600060208201905081810360008301526115ea816115ae565b9050919050565b7f5573657220646964206e6f7420707572636861736520636f7572736500000000600082015250565b6000611627601c83611574565b9150611632826115f1565b602082019050919050565b600060208201905081810360008301526116568161161a565b9050919050565b82818337600083830152505050565b6000601f19601f8301169050919050565b60006116898385611574565b935061169683858461165d565b61169f8361166c565b840190509392505050565b60006060820190506116bf6000830187611378565b81810360208301526116d281858761167d565b90506116e16040830184611321565b95945050505050565b6000815190506116f981611133565b92915050565b6000602082840312156117155761171461111f565b5b6000611723848285016116ea565b91505092915050565b7f496e76616c696420616464726573730000000000000000000000000000000000600082015250565b6000611762600f83611574565b915061176d8261172c565b602082019050919050565b6000602082019050818103600083015261179181611755565b9050919050565b7f436f7572736520646f6573206e6f742065786973740000000000000000000000600082015250565b60006117ce601583611574565b91506117d982611798565b602082019050919050565b600060208201905081810360008301526117fd816117c1565b9050919050565b7f436f75727365206e6f7420617661696c61626c65000000000000000000000000600082015250565b600061183a601483611574565b915061184582611804565b602082019050919050565b600060208201905081810360008301526118698161182d565b9050919050565b7f496e73756666696369656e74207061796d656e74000000000000000000000000600082015250565b60006118a6601483611574565b91506118b182611870565b602082019050919050565b600060208201905081810360008301526118d581611899565b9050919050565b7f416c726561647920707572636861736564000000000000000000000000000000600082015250565b6000611912601183611574565b915061191d826118dc565b602082019050919050565b6000602082019050818103600083015261194181611905565b9050919050565b600081905092915050565b50565b6000611963600083611948565b915061196e82611953565b600082019050919050565b600061198482611956565b9150819050919050565b7f5472616e73666572206661696c65640000000000000000000000000000000000600082015250565b60006119c4600f83611574565b91506119cf8261198e565b602082019050919050565b600060208201905081810360008301526119f3816119b7565b9050919050565b7f496e76616c696420747265617375727900000000000000000000000000000000600082015250565b6000611a30601083611574565b9150611a3b826119fa565b602082019050919050565b60006020820190508181036000830152611a5f81611a23565b9050919050565b7f496e76616c696420726563697069656e74000000000000000000000000000000600082015250565b6000611a9c601183611574565b9150611aa782611a66565b602082019050919050565b60006020820190508181036000830152611acb81611a8f565b9050919050565b7f5769746864726177206661696c65640000000000000000000000000000000000600082015250565b6000611b08600f83611574565b9150611b1382611ad2565b602082019050919050565b60006020820190508181036000830152611b3781611afb565b905091905056fea26469706673582212200120425a9260f4b542d4a7013d165d520feb4a7d35236a487243364407aaa66164736f6c63430008140033",
  "linkReferences": {},
  "deployedLinkReferences": {}
}