{
  "_format": "hh-sol-artifact-1",
  "contractName": "CourseMarketplace",
  "sourceName": "contracts/CourseMarketplace.sol",
  "abi": [
    {
      "inputs": [
        {
          "internalType": "address",
          "name": "_certContract",
          "type": "address"
        },
        {
          "internalType": "address",
          "name": "_treasury",
          "type": "address"
        }
      ],
      "stateMutability": "nonpayable",
      "type": "constructor"
    },
    {
      "inputs": [
        {
          "internalType": "address",
          "name": "owner",
          "type": "address"
        }
      ],
      "name": "OwnableInvalidOwner",
      "type": "error"
    },
    {
      "inputs": [
        {
          "internalType": "address",
          "name": "account",
          "type": "address"
        }
      ],
      "name": "OwnableUnauthorizedAccount",
      "type": "error"
    },
    {
      "inputs": [],
      "name": "ReentrancyGuardReentrantCall",
      "type": "error"
    },
    {
      "anonymous": false,
      "inputs": [
        {
          "indexed": true,
          "internalType": "address",
          "name": "to",
          "type": "address"
        },
        {
          "indexed": true,
          "internalType": "uint256",
          "name": "tokenId",
          "type": "uint256"
        },
        {
          "indexed": true,
          "internalType": "uint256",
          "name": "courseId",
          "type": "uint256"
        }
      ],
      "name": "CertificateIssued",
      "type": "event"
    },
    {
      "anonymous": false,
      "inputs": [
        {
          "indexed": true,
          "internalType": "uint256",
          "name": "courseId",
          "type": "uint256"
        },
        {
          "indexed": false,
          "internalType": "uint256",
          "name": "price",
          "type": "uint256"
        },
        {
          "indexed": true,
          "internalType": "address",
          "name": "creator",
          "type": "address"
        }
      ],
      "name": "CourseAdded",
      "type": "event"
    },
    {
      "anonymous": false,
      "inputs": [
        {
          "indexed": true,
          "internalType": "address",
          "name": "buyer",
          "type": "address"
        },
        {
          "indexed": true,
          "internalType": "uint256",
          "name": "courseId",
          "type": "uint256"
        },
        {
          "indexed": false,
          "internalType": "uint256",
          "name": "amount",
          "type": "uint256"
        }
      ],
      "name": "CoursePurchased",
      "type": "event"
    },
    {
      "anonymous": false,
      "inputs": [
        {
          "indexed": true,
          "internalType": "uint256",
          "name": "courseId",
          "type": "uint256"
        },
        {
          "indexed": false,
          "internalType": "uint256",
          "name": "price",
          "type": "uint256"
        },
        {
          "indexed": false,
          "internalType": "bool",
          "name": "active",
          "type": "bool"
        }
      ],
      "name": "CourseUpdated",
      "type": "event"
    },
    {
      "anonymous": false,
      "inputs": [
        {
          "indexed": true,
          "internalType": "address",
          "name": "previousOwner",
          "type": "address"
        },
        {
          "indexed": true,
          "internalType": "address",
          "name": "newOwner",
          "type": "address"
        }
      ],
      "name": "OwnershipTransferred",
      "type": "event"
    },
    {
      "inputs": [
        {
          "internalType": "uint256",
          "name": "courseId",
          "type": "uint256"
        },
        {
          "internalType": "uint256",
          "name": "price",
          "type": "uint256"
        },
        {
          "internalType": "address",
          "name": "creator",
          "type": "address"
        }
      ],
      "name": "addCourse",
      "outputs": [],
      "stateMutability": "nonpayable",
      "type": "function"
    },
    {
      "inputs": [],
      "name": "certContract",
      "outputs": [
        {
          "internalType": "contract ICertificateNFT",
          "name": "",
          "type": "address"
        }
      ],
      "stateMutability": "view",
      "type": "function"
    },
    {
      "inputs": [
        {
          "internalType": "uint256",
          "name": "",
          "type": "uint256"
        }
      ],
      "name": "courses",
      "outputs": [
        {
          "internalType": "uint256",
          "name": "id",
          "type": "uint256"
        },
        {
          "internalType": "uint256",
          "name": "price",
          "type": "uint256"
        },
        {
          "internalType": "bool",
          "name": "active",
          "type": "bool"
        },
        {
          "internalType": "address",
          "name": "creator",
          "type": "address"
        }
      ],
      "stateMutability": "view",
      "type": "function"
    },
    {
      "inputs": [
        {
          "internalType": "address",
          "name": "to",
          "type": "address"
        },
        {
          "internalType": "uint256",
          "name": "courseId",
          "type": "uint256"
        },
        {
          "internalType": "string",
          "name": "tokenURI",
          "type": "string"
        }
      ],
      "name": "issueCertificate",
      "outputs": [
        {
          "internalType": "uint256",
          "name": "",
          "type": "uint256"
        }
      ],
      "stateMutability": "nonpayable",
      "type": "function"
    },
    {
      "inputs": [],
      "name": "owner",
      "outputs": [
        {
          "internalType": "address",
          "name": "",
          "type": "address"
        }
      ],
      "stateMutability": "view",
      "type": "function"
    },
    {
      "inputs": [
        {
          "internalType": "uint256",
          "name": "courseId",
          "type": "uint256"
        }
      ],
      "name": "purchaseCourse",
      "outputs": [],
      "stateMutability": "payable",
      "type": "function"
    },
    {
      "inputs": [
        {
          "internalType": "address",
          "name": "",
          "type": "address"
        },
        {
          "internalType": "uint256",
          "name": "",
          "type": "uint256"
        }
      ],
      "name": "purchased",
      "outputs": [
        {
          "internalType": "bool",
          "name": "",
          "type": "bool"
        }
      ],
      "stateMutability": "view",
      "type": "function"
    },
    {
      "inputs": [],
      "name": "renounceOwnership",
      "outputs": [],
      "stateMutability": "nonpayable",
      "type": "function"
    },
    {
      "inputs": [
        {
          "internalType": "address",
          "name": "_certContract",
          "type": "address"
        }
      ],
      "name": "setCertificateContract",
      "outputs": [],
      "stateMutability": "nonpayable",
      "type": "function"
    },
    {
      "inputs": [
        {
          "internalType": "address",
          "name": "_treasury",
          "type": "address"
        }
      ],
      "name": "setTreasury",
      "outputs": [],
      "stateMutability": "nonpayable",
      "type": "function"
    },
    {
      "inputs": [
        {
          "internalType": "address",
          "name": "newOwner",
          "type": "address"
        }
      ],
      "name": "transferOwnership",
      "outputs": [],
      "stateMutability": "nonpayable",
      "type": "function"
    },
    {
      "inputs": [],
      "name": "treasury",
      "outputs": [
        {
          "internalType": "address",
          "name": "",
          "type": "address"
        }
      ],
      "stateMutability": "view",
      "type": "function"
    },
    {
      "inputs": [
        {
          "internalType": "uint256",
          "name": "courseId",
          "type": "uint256"
        },
        {
          "internalType": "uint256",
          "name": "price",
          "type": "uint256"
        },
        {
          "internalType": "bool",
          "name": "active",
          "type": "bool"
        }
      ],
      "name": "updateCourse",
      "outputs": [],
      "stateMutability": "nonpayable",
      "type": "function"
    },
    {
      "inputs": [
        {
          "internalType": "address",
          "name": "to",
          "type": "address"
        },
        {
          "internalType": "uint256",
          "name": "amount",
          "type": "uint256"
        }
      ],
      "name": "withdraw",
      "outputs": [],
      "stateMutability": "nonpayable",
      "type": "function"
    }
  ],
  "bytecode": "0x60806040523480156200001157600080fd5b5060405162001e4d38038062001e4d833981810160405281019062000037919062000365565b33600073ffffffffffffffffffffffffffffffffffffffff168173ffffffffffffffffffffffffffffffffffffffff1603620000ad5760006040517f1e4fbdf7000000000000000000000000000000000000000000000000000000008152600401620000a49190620003bd565b60405180910390fd5b620000be816200020e60201b60201c565b5060018081905550600073ffffffffffffffffffffffffffffffffffffffff168273ffffffffffffffffffffffffffffffffffffffff160362000138576040517f08c379a00000000000000000000000000000000000000000000000000000000081526004016200012f906200043b565b60405180910390fd5b81600560006101000a81548173ffffffffffffffffffffffffffffffffffffffff021916908373ffffffffffffffffffffffffffffffffffffffff160217905550600073ffffffffffffffffffffffffffffffffffffffff168173ffffffffffffffffffffffffffffffffffffffff1614620001b55780620001c6565b620001c5620002d260201b60201c565b5b600460006101000a81548173ffffffffffffffffffffffffffffffffffffffff021916908373ffffffffffffffffffffffffffffffffffffffff16021790555050506200045d565b60008060009054906101000a900473ffffffffffffffffffffffffffffffffffffffff169050816000806101000a81548173ffffffffffffffffffffffffffffffffffffffff021916908373ffffffffffffffffffffffffffffffffffffffff1602179055508173ffffffffffffffffffffffffffffffffffffffff168173ffffffffffffffffffffffffffffffffffffffff167f8be0079c531659141344cd1fd0a4f28419497f9722a3daafe3b4186f6b6457e060405160405180910390a35050565b60008060009054906101000a900473ffffffffffffffffffffffffffffffffffffffff16905090565b600080fd5b600073ffffffffffffffffffffffffffffffffffffffff82169050919050565b60006200032d8262000300565b9050919050565b6200033f8162000320565b81146200034b57600080fd5b50565b6000815190506200035f8162000334565b92915050565b600080604083850312156200037f576200037e620002fb565b5b60006200038f858286016200034e565b9250506020620003a2858286016200034e565b9150509250929050565b620003b78162000320565b82525050565b6000602082019050620003d46000830184620003ac565b92915050565b600082825260208201905092915050565b7f496e76616c6964206365727420636f6e74726163740000000000000000000000600082015250565b600062000423601583620003da565b91506200043082620003eb565b602082019050919050565b60006020820190508181036000830152620004568162000414565b9050919050565b6119e0806200046d6000396000f3fe6080604052600436106100dd5760003560e01c806396f979d21161007f578063e597ef1211610059578063e597ef121461028e578063f0f44260146102cb578063f2fde38b146102f4578063f3fef3a31461031d576100dd565b806396f979d2146102095780639e0d723214610249578063cd13193814610272576100dd565b806361d027b3116100bb57806361d027b31461017157806362bf03f11461019c578063715018a6146101c75780638da5cb5b146101de576100dd565b806308ed65c8146100e25780630ce51f561461010b5780635186240114610148575b600080fd5b3480156100ee57600080fd5b50610109600480360381019061010491906110b5565b610346565b005b34801561011757600080fd5b50610132600480360381019061012d91906111cb565b6103ca565b60405161013f919061124e565b60405180910390f35b34801561015457600080fd5b5061016f600480360381019061016a9190611269565b61063f565b005b34801561017d57600080fd5b506101866106fa565b60405161019391906112a5565b60405180910390f35b3480156101a857600080fd5b506101b1610720565b6040516101be919061131f565b60405180910390f35b3480156101d357600080fd5b506101dc610746565b005b3480156101ea57600080fd5b506101f361075a565b60405161020091906112a5565b60405180910390f35b34801561021557600080fd5b50610230600480360381019061022b919061133a565b610783565b6040516102409493929190611376565b60405180910390f35b34801561025557600080fd5b50610270600480360381019061026b91906113bb565b6107e0565b005b61028c6004803603810190610287919061133a565b610907565b005b34801561029a57600080fd5b506102b560048036038101906102b0919061140e565b610c72565b6040516102c2919061144e565b60405180910390f35b3480156102d757600080fd5b506102f260048036038101906102ed9190611269565b610ca1565b005b34801561030057600080fd5b5061031b60048036038101906103169190611269565b610ced565b005b34801561032957600080fd5b50610344600480360381019061033f919061140e565b610d73565b005b61034e610e9b565b6000600260008581526020019081526020016000209050828160010181905550818160020160006101000a81548160ff021916908315150217905550837f5120680c86668cac898dab69a03b0ee7262d0d93799edb4e0c9ca52e001e436884846040516103bc929190611469565b60405180910390a250505050565b60006103d4610f22565b6103dc61075a565b73ffffffffffffffffffffffffffffffffffffffff163373ffffffffffffffffffffffffffffffffffffffff1614806104625750600460009054906101000a900473ffffffffffffffffffffffffffffffffffffffff1673ffffffffffffffffffffffffffffffffffffffff163373ffffffffffffffffffffffffffffffffffffffff16145b6104a1576040517f08c379a0000000000000000000000000000000000000000000000000000000008152600401610498906114ef565b60405180910390fd5b600360008673ffffffffffffffffffffffffffffffffffffffff1673ffffffffffffffffffffffffffffffffffffffff168152602001908152602001600020600085815260200190815260200160002060009054906101000a900460ff1661053e576040517f08c379a00000000000000000000000000000000000000000000000000000000081526004016105359061155b565b60405180910390fd5b6000600560009054906101000a900473ffffffffffffffffffffffffffffffffffffffff1673ffffffffffffffffffffffffffffffffffffffff1663cb064ddf878686896040518563ffffffff1660e01b81526004016105a194939291906115c8565b6020604051808303816000875af11580156105c0573d6000803e3d6000fd5b505050506040513d601f19601f820116820180604052508101906105e4919061161d565b905084818773ffffffffffffffffffffffffffffffffffffffff167f65db4d653a1dec19354793622d6b806e92c72ac3f02709ab594eaf33c3a9686660405160405180910390a480915050610637610f68565b949350505050565b610647610e9b565b600073ffffffffffffffffffffffffffffffffffffffff168173ffffffffffffffffffffffffffffffffffffffff16036106b6576040517f08c379a00000000000000000000000000000000000000000000000000000000081526004016106ad90611696565b60405180910390fd5b80600560006101000a81548173ffffffffffffffffffffffffffffffffffffffff021916908373ffffffffffffffffffffffffffffffffffffffff16021790555050565b600460009054906101000a900473ffffffffffffffffffffffffffffffffffffffff1681565b600560009054906101000a900473ffffffffffffffffffffffffffffffffffffffff1681565b61074e610e9b565b6107586000610f71565b565b60008060009054906101000a900473ffffffffffffffffffffffffffffffffffffffff16905090565b60026020528060005260406000206000915090508060000154908060010154908060020160009054906101000a900460ff16908060020160019054906101000a900473ffffffffffffffffffffffffffffffffffffffff16905084565b6107e8610e9b565b60405180608001604052808481526020018381526020016001151581526020018273ffffffffffffffffffffffffffffffffffffffff1681525060026000858152602001908152602001600020600082015181600001556020820151816001015560408201518160020160006101000a81548160ff02191690831515021790555060608201518160020160016101000a81548173ffffffffffffffffffffffffffffffffffffffff021916908373ffffffffffffffffffffffffffffffffffffffff1602179055509050508073ffffffffffffffffffffffffffffffffffffffff16837fb342486ee6a950fe08c8c44031178e0aee1851dc89a0c25d423aefec0a380f2b846040516108fa919061124e565b60405180910390a3505050565b61090f610f22565b60006002600083815260200190815260200160002060405180608001604052908160008201548152602001600182015481526020016002820160009054906101000a900460ff161515151581526020016002820160019054906101000a900473ffffffffffffffffffffffffffffffffffffffff1673ffffffffffffffffffffffffffffffffffffffff1673ffffffffffffffffffffffffffffffffffffffff1681525050905080604001516109fa576040517f08c379a00000000000000000000000000000000000000000000000000000000081526004016109f190611702565b60405180910390fd5b8060200151341015610a41576040517f08c379a0000000000000000000000000000000000000000000000000000000008152600401610a389061176e565b60405180910390fd5b600360003373ffffffffffffffffffffffffffffffffffffffff1673ffffffffffffffffffffffffffffffffffffffff168152602001908152602001600020600083815260200190815260200160002060009054906101000a900460ff1615610adf576040517f08c379a0000000000000000000000000000000000000000000000000000000008152600401610ad6906117da565b60405180910390fd5b6001600360003373ffffffffffffffffffffffffffffffffffffffff1673ffffffffffffffffffffffffffffffffffffffff168152602001908152602001600020600084815260200190815260200160002060006101000a81548160ff0219169083151502179055506000600460009054906101000a900473ffffffffffffffffffffffffffffffffffffffff1673ffffffffffffffffffffffffffffffffffffffff1634604051610b9090611851565b60006040518083038185875af1925050503d8060008114610bcd576040519150601f19603f3d011682016040523d82523d6000602084013e610bd2565b606091505b5050905080610c16576040517f08c379a0000000000000000000000000000000000000000000000000000000008152600401610c0d906118b2565b60405180910390fd5b823373ffffffffffffffffffffffffffffffffffffffff167f4b71ef6d807a9a201a6f28d104a403722af74f85b8f2042a8d152bd2a78f558634604051610c5d919061124e565b60405180910390a35050610c6f610f68565b50565b60036020528160005260406000206020528060005260406000206000915091509054906101000a900460ff1681565b610ca9610e9b565b80600460006101000a81548173ffffffffffffffffffffffffffffffffffffffff021916908373ffffffffffffffffffffffffffffffffffffffff16021790555050565b610cf5610e9b565b600073ffffffffffffffffffffffffffffffffffffffff168173ffffffffffffffffffffffffffffffffffffffff1603610d675760006040517f1e4fbdf7000000000000000000000000000000000000000000000000000000008152600401610d5e91906112a5565b60405180910390fd5b610d7081610f71565b50565b610d7b610e9b565b600073ffffffffffffffffffffffffffffffffffffffff168273ffffffffffffffffffffffffffffffffffffffff1603610dea576040517f08c379a0000000000000000000000000000000000000000000000000000000008152600401610de19061191e565b60405180910390fd5b60008273ffffffffffffffffffffffffffffffffffffffff1682604051610e1090611851565b60006040518083038185875af1925050503d8060008114610e4d576040519150601f19603f3d011682016040523d82523d6000602084013e610e52565b606091505b5050905080610e96576040517f08c379a0000000000000000000000000000000000000000000000000000000008152600401610e8d9061198a565b60405180910390fd5b505050565b610ea3611035565b73ffffffffffffffffffffffffffffffffffffffff16610ec161075a565b73ffffffffffffffffffffffffffffffffffffffff1614610f2057610ee4611035565b6040517f118cdaa7000000000000000000000000000000000000000000000000000000008152600401610f1791906112a5565b60405180910390fd5b565b600260015403610f5e576040517f3ee5aeb500000000000000000000000000000000000000000000000000000000815260040160405180910390fd5b6002600181905550565b60018081905550565b60008060009054906101000a900473ffffffffffffffffffffffffffffffffffffffff169050816000806101000a81548173ffffffffffffffffffffffffffffffffffffffff021916908373ffffffffffffffffffffffffffffffffffffffff1602179055508173ffffffffffffffffffffffffffffffffffffffff168173ffffffffffffffffffffffffffffffffffffffff167f8be0079c531659141344cd1fd0a4f28419497f9722a3daafe3b4186f6b6457e060405160405180910390a35050565b600033905090565b600080fd5b600080fd5b6000819050919050565b61105a81611047565b811461106557600080fd5b50565b60008135905061107781611051565b92915050565b60008115159050919050565b6110928161107d565b811461109d57600080fd5b50565b6000813590506110af81611089565b92915050565b6000806000606084860312156110ce576110cd61103d565b5b60006110dc86828701611068565b93505060206110ed86828701611068565b92505060406110fe868287016110a0565b9150509250925092565b600073ffffffffffffffffffffffffffffffffffffffff82169050919050565b600061113382611108565b9050919050565b61114381611128565b811461114e57600080fd5b50565b6000813590506111608161113a565b92915050565b600080fd5b600080fd5b600080fd5b60008083601f84011261118b5761118a611166565b5b8235905067ffffffffffffffff8111156111a8576111a761116b565b5b6020830191508360018202830111156111c4576111c3611170565b5b9250929050565b600080600080606085870312156111e5576111e461103d565b5b60006111f387828801611151565b945050602061120487828801611068565b935050604085013567ffffffffffffffff81111561122557611224611042565b5b61123187828801611175565b925092505092959194509250565b61124881611047565b82525050565b6000602082019050611263600083018461123f565b92915050565b60006020828403121561127f5761127e61103d565b5b600061128d84828501611151565b91505092915050565b61129f81611128565b82525050565b60006020820190506112ba6000830184611296565b92915050565b6000819050919050565b60006112e56112e06112db84611108565b6112c0565b611108565b9050919050565b60006112f7826112ca565b9050919050565b6000611309826112ec565b9050919050565b611319816112fe565b82525050565b60006020820190506113346000830184611310565b92915050565b6000602082840312156113505761134f61103d565b5b600061135e84828501611068565b91505092915050565b6113708161107d565b82525050565b600060808201905061138b600083018761123f565b611398602083018661123f565b6113a56040830185611367565b6113b26060830184611296565b95945050505050565b6000806000606084860312156113d4576113d361103d565b5b60006113e286828701611068565b93505060206113f386828701611068565b925050604061140486828701611151565b9150509250925092565b600080604083850312156114255761142461103d565b5b600061143385828601611151565b925050602061144485828601611068565b9150509250929050565b60006020820190506114636000830184611367565b92915050565b600060408201905061147e600083018561123f565b61148b6020830184611367565b9392505050565b600082825260208201905092915050565b7f4e6f7420616c6c6f77656420746f206973737565000000000000000000000000600082015250565b60006114d9601483611492565b91506114e4826114a3565b602082019050919050565b60006020820190508181036000830152611508816114cc565b9050919050565b7f5573657220646964206e6f7420707572636861736520636f7572736500000000600082015250565b6000611545601c83611492565b91506115508261150f565b602082019050919050565b6000602082019050818103600083015261157481611538565b9050919050565b82818337600083830152505050565b6000601f19601f8301169050919050565b60006115a78385611492565b93506115b483858461157b565b6115bd8361158a565b840190509392505050565b60006060820190506115dd6000830187611296565b81810360208301526115f081858761159b565b90506115ff604083018461123f565b95945050505050565b60008151905061161781611051565b92915050565b6000602082840312156116335761163261103d565b5b600061164184828501611608565b91505092915050565b7f496e76616c696420616464726573730000000000000000000000000000000000600082015250565b6000611680600f83611492565b915061168b8261164a565b602082019050919050565b600060208201905081810360008301526116af81611673565b9050919050565b7f436f75727365206e6f7420617661696c61626c65000000000000000000000000600082015250565b60006116ec601483611492565b91506116f7826116b6565b602082019050919050565b6000602082019050818103600083015261171b816116df565b9050919050565b7f496e73756666696369656e74207061796d656e74000000000000000000000000600082015250565b6000611758601483611492565b915061176382611722565b602082019050919050565b600060208201905081810360008301526117878161174b565b9050919050565b7f416c726561647920707572636861736564000000000000000000000000000000600082015250565b60006117c4601183611492565b91506117cf8261178e565b602082019050919050565b600060208201905081810360008301526117f3816117b7565b9050919050565b600081905092915050565b7f7b7d000000000000000000000000000000000000000000000000000000000000600082015250565b600061183b6002836117fa565b915061184682611805565b600282019050919050565b600061185c8261182e565b9150819050919050565b7f5472616e73666572206661696c65640000000000000000000000000000000000600082015250565b600061189c600f83611492565b91506118a782611866565b602082019050919050565b600060208201905081810360008301526118cb8161188f565b9050919050565b7f496e76616c696420726563697069656e74000000000000000000000000000000600082015250565b6000611908601183611492565b9150611913826118d2565b602082019050919050565b60006020820190508181036000830152611937816118fb565b9050919050565b7f5769746864726177206661696c65640000000000000000000000000000000000600082015250565b6000611974600f83611492565b915061197f8261193e565b602082019050919050565b600060208201905081810360008301526119a381611967565b905091905056fea2646970667358221220a41ebdaba257cfe0c2f1fa3c9ae114f19e9489cbb712f4fc138b6bc5d6bacf1864736f6c63430008140033",
  "linkReferences": {},
  "deployedLinkReferences": {}
}